:020000040800F2
:1000000000500020E508000831040008330400080F
:100010003504000837040008390400080000000017
:100020000000000000000000000000003B04000889
:100030003D040008000000003F04000841040008DF
:100040002D0900082D0900082D0900082D090008B8
:100050002D0900082D0900082D0900082D090008A8
:100060002D0900082D0900082D0900082D09000898
:100070002D0900082D0900082D0900082D09000888
:100080002D0900082D0900082D0900082D09000878
:100090002D0900082D0900082D0900082D09000868
:1000A0002D0900082D0900082D0900082D09000858
:1000B0002D0900082D090008490400082D09000831
:1000C0002D0900082D0900082D0900082D09000838
:1000D0002D0900082D0900082D0900082D09000828
:1000E0002D0900082D0900082D0900080000000056
:1000F0000000000000000000000000000000000000
:0C01000000000000000000005FF808F1A3
:10010C000348044B834202D0034B03B1184770479A
:10011C001000002010000020000000000548064BD5
:10012C001B1AD90F01EBA301491002D0034B03B1E9
:10013C00184770471000002010000020000000003D
:10014C0010B5064C237843B9FFF7DAFF044B13B113
:10015C000448AFF300800123237010BD1000002071
:10016C00000000000021000808B5054B1BB1054933
:10017C000548AFF30080BDE80840FFF7CFBF00BFD4
:10018C000000000014000020002100082DE9F041BF
:10019C0088B0002404940594069407942A4B9A6919
:1001AC0042F020029A619A6902F020020192019AAF
:1001BC009A6942F004029A619A6902F0040202926E
:1001CC00029A9A6942F008029A619B6903F008034B
:1001DC000393039B1D4D22464021284600F086FDCB
:1001EC0001228021284600F081FD194E2246012172
:1001FC00304600F07BFD01220221304600F076FDF6
:10020C00402304934FF00108CDF814800694022388
:10021C00079304A9284600F05BFC80230493CDF8D7
:10022C00148006940327079704A9284600F050FC75
:10023C000497CDF814800694079704A9304600F073
:10024C0047FC08B0BDE8F0810010024000080140F6
:10025C00000C01400268064B9A4200D07047054BD7
:10026C001B6844F620625A639A63DA63F6E700BFB0
:10027C00000800400401002072B6FEE700B591B002
:10028C002822002106A801F055FE002301930293B9
:10029C00039304930593012206924FF48033079342
:1002AC000A9202220D920E934FF4E0130F9306A8BC
:1002BC0000F038FD80B90F23019302210291002335
:1002CC0003934FF480620492059301A800F05CFF45
:1002DC0020B911B05DF804FBFFF7CEFFFFF7CCFFA0
:1002EC0038B500F045FBFFF7C9FFFFF74FFF00F0F3
:1002FC00FDF900F0ADF800F0DDF800F08FFA00F039
:10030C000BF9334C204601F0C5F8324D002128463C
:10031C0001F060FC0421284601F05CFC0821284611
:10032C0001F058FC2C4D0021284601F0C1FC0421A1
:10033C00284601F0BDFC0021204601F0B9FC042147
:10034C00204601F0B5FC2A68D36843F00103D36062
:10035C002368D96841F00101D96047F230515162EC
:10036C0059621C4D2B6840F21452DA63C82000F01D
:10037C0023FB2B6844F620645C639C634FF42F7062
:10038C0000F01AFB2B6840F24C42DA635C639C630E
:10039C004FF4C87000F010FB2B684FF49662DA63D0
:1003AC005C639C634FF4FA7000F006FB2B684FF40F
:1003BC004872DA635C639C634FF4FA7000F0FCFAE9
:1003CC002B6800225A639A63044800F0F5FAC8E7D8
:1003DC007400002004010020BC00002040420F00EB
:1003EC0082B00E4B9A6942F001029A619A6902F04E
:1003FC0001020092009ADA6942F08052DA61DB69FC
:10040C0003F080530193019B054A536823F0E0638A
:10041C0043F00073536002B0704700BF00100240FD
:10042C0000000140FEE7FEE7FEE7FEE7FEE770474F
:10043C007047704708B500F0ADFA08BD08B5024822
:10044C0001F061F808BD00BF2C00002070470000CF
:10045C0000B58DB02422002103A801F06BFD002310
:10046C000193029312484FF0804202604360836014
:10047C004FF6FF72C2600361836103230393012370
:10048C000593099303A901F08DF950B90023019349
:10049C00029301A9064801F071FC28B90DB05DF872
:1004AC0004FBFFF7E9FEF1E7FFF7E6FEF6E700BF16
:1004BC00BC00002000B58DB02422002103A801F05F
:1004CC0039FD0023019302931148124A02604360E4
:1004DC0083604FF6FF72C260036183610323039351
:1004EC0001230593099303A901F05CF950B900238A
:1004FC000193029301A9064801F040FC28B90DB004
:10050C005DF804FBFFF7B8FEF1E7FFF7B5FEF6E781
:10051C00740000200004004000B587B00023029353
:10052C00039304930593009301931548154A0260B5
:10053C0047224260836042F20F72C26003618361A2
:10054C0001F0D8F890B94FF48053029302A90C48EB
:10055C0001F02CFA68B9002300930193694608480E
:10056C0001F00CFC40B907B05DF804FBFFF784FE0A
:10057C00E9E7FFF781FEEEE7FFF77EFEF3E700BF4A
:10058C002C0000200008004000B583B00368134A1B
:10059C00934205D0124A93420DD003B05DF804FB90
:1005AC00104B9A6942F400629A619B6903F40063F0
:1005BC000093009BF1E70B4BDA6942F00402DA611D
:1005CC00DB6903F004030193019B002201211E202F
:1005DC0000F04CFA1E2000F059FADEE7002C014026
:1005EC00000800400010024000B589B000230493BD
:1005FC000593069307930368B3F1804F05D0224A05
:10060C0093421DD009B05DF804FB03F50433DA699D
:10061C0042F00102DA61DA6902F001020092009AFA
:10062C009A6942F004029A619B6903F004030193F6
:10063C00019B0323049304A9144800F049FAE1E751
:10064C00134BDA6942F00202DA61DA6902F0020253
:10065C000292029A9A6942F008029A619B6903F02D
:10066C0008030393039B3023049304A9094800F067
:10067C002FFA094A536823F4406343F0E06343F4D0
:10068C0000635360BEE700BF000400400008014057
:10069C0000100240000C01400000014000B587B082
:1006AC000023029303930493059302680D4B9A4223
:1006BC0002D007B05DF804FB03F564439A6942F07D
:1006CC0004029A619B6903F004030193019B4FF4AC
:1006DC00E063029302230393059302A9024800F0FE
:1006EC00F7F9E6E7002C01400008014010B59AB07C
:1006FC00002416941794189419941194129413942A
:10070C00149415940F941094089409940A940B94CF
:10071C000C940D940E9420222146684601F00AFC9C
:10072C003C483D4B036047234360846044F61F63A1
:10073C00C360046144618023836100F0DBFF002807
:10074C004DD14FF48053169316A9324801F02EF96F
:10075C00002847D12F4800F0F9FF002845D100238D
:10076C001193129311A92B4801F0FBF900283FD1EA
:10077C0000230F9310930FA9264801F0FFFA0028CD
:10078C0039D160230893002209920A920B920C92A1
:10079C000D920E9208A91F4801F08EF870BB04222E
:1007AC0008A91C4801F088F858BB082208A9194868
:1007BC0001F082F840BB0023009301930293039352
:1007CC0004934FF40052059207936946114801F0C7
:1007DC000BFBE0B90F48FFF761FF1AB010BDFFF734
:1007EC004BFDAEE7FFF748FDB4E7FFF745FDB6E775
:1007FC00FFF742FDBCE7FFF73FFDC2E7FFF73CFD0B
:10080C00CDE7FFF739FDD0E7FFF736FDD3E7FFF76C
:10081C0033FDDFE704010020002C014008B50A4835
:10082C000A4B03604FF4E133436000238360C360E1
:10083C0003610C2242618361C36101F04BFB00B97F
:10084C0008BDFFF719FDFBE74C0100200038014003
:10085C0010B586B0002302930393049305930268AA
:10086C001A4B9A4201D006B010BD03F558439A6951
:10087C0042F480429A619A6902F480420092009A92
:10088C009A6942F008029A619B6903F0080301938C
:10089C00019B4023029302230393032305930C4CE7
:1008AC0002A9204600F014F980230293002303933D
:1008BC00049302A9204600F00BF9064A536843F052
:1008CC00E06343F004035360CDE700BF0038014000
:1008DC00000C014000000140FFF7B8FD0B480C492B
:1008EC000C4A002302E0D458C4500433C4188C4280
:1008FC00F9D3094A094C002301E013600432A242E7
:10090C00FBD301F067FBFFF7EBFC70470000002006
:10091C00100000205021000810000020300300209F
:10092C00FEE7000010B504460E4B1A784FF47A73AC
:10093C00B3FBF2F30C4A1068B0FBF3F000F0B4F820
:10094C0068B90F2C01D901200AE0002221464FF092
:10095C00FF3000F08BF8054B1C60002000E00120FC
:10096C0010BD00BF04000020000000200800002083
:10097C0008B5074A136843F010031360032000F016
:10098C0063F80F20FFF7CEFFFFF72AFD002008BD0C
:10099C0000200240034A1168034B1B780B44136080
:1009AC00704700BF9401002004000020014B186820
:1009BC00704700BF9401002038B50446FFF7F6FFDE
:1009CC000546B4F1FF3F02D0044B1B781C44FFF7E3
:1009DC00EDFF401BA042FAD338BD00BF040000203D
:1009EC00002808DB0901C9B200F1604000F5614044
:1009FC0080F80013704700F00F000901C9B2014BD9
:100A0C001954704714ED00E000B500F00700C0F178
:100A1C00070CBCF1040F28BF4FF0040C031D062B70
:100A2C000FD9C31E4FF0FF3E0EFA0CF021EA000165
:100A3C0099400EFA03FE22EA0E0241EA02005DF82A
:100A4C0004FB0023EEE70000074AD36823F4E063BD
:100A5C001B041B0C000200F4E060034343F0BF6373
:100A6C0043F40033D360704700ED00E010B504464A
:100A7C00054BD868C0F30220FFF7C6FF014620469D
:100A8C00FFF7AEFF10BD00BF00ED00E0002807DB54
:100A9C0000F01F02400901239340024A42F8203023
:100AAC00704700BF00E100E00138B0F1807F0BD24D
:100ABC004FF0E0235861054AF02182F82310002002
:100ACC00986107221A6170470120704700ED00E021
:100ADC0070B582B00024A446A2E07E4DAB4210D08B
:100AEC0007D97D4DAB420CD005F58035AB4208D013
:100AFC0013E0A5F58015AB4203D005F57025AB428C
:100B0C0007D18B68002B55D0012B4ED042610824A5
:100B1C0003E0A5F58015AB42F3D0BEF1FF0F4BD827
:100B2C0006464FEA8C0233680F25954023EA0503ED
:100B3C0004FA02F2134333604B6813F0805F6DD0FC
:100B4C00664B9A6942F001029A619B6903F00103BA
:100B5C000193019B4FEA9C02951C614B53F8256055
:100B6C000CF00305AD000F23AB4026EA03065D4BEA
:100B7C00984228D003F58063984200F08D8003F5ED
:100B8C008063984200F08A8003F58063984218D005
:100B9C00042319E0CC68C0E7CC680434BDE7CC680A
:100BAC000834BAE7CC680C34B7E702610824B4E720
:100BBC000024B2E70424B0E7061DACF10802920051
:100BCC00B1E7032300E00023AB4033430232444D32
:100BDC0045F822304B6813F4801F61D0424A936869
:100BEC0043EA0E0393604B6813F4001F5ED03E4A39
:100BFC00D36843EA0E03D3604B6813F4003F5BD019
:100C0C00394A536843EA0E0353604B6813F4803F30
:100C1C0058D0354A136843EA0E0313600CF1010CEB
:100C2C000B6833FA0CF253D0012202FA0CF203EAED
:100C3C00020E32EA0303F1D14B68122B3FF64DAF93
:100C4C00122B3FF66AAF01A555F823F00F0B0008E5
:100C5C00A10B0008AB0B0008BD0B0008270B00080C
:100C6C00270B0008270B0008270B0008270B000890
:100C7C00270B0008270B0008270B0008270B000880
:100C8C00270B0008270B0008270B0008270B000870
:100C9C00A50B0008B10B0008012395E7022393E78D
:100CAC00114A936823EA0E0393609CE70E4AD368BB
:100CBC0023EA0E03D3609FE70B4A536823EA0E0323
:100CCC005360A2E7084A136823EA0E031360A5E7F2
:100CDC0002B070BD00002210000031100010024064
:100CEC000000014000080140000401400AB101610C
:100CFC00704709040161704782B0084B1B68084AB1
:100D0C00A2FB03235B0A00FB03F3019300BF019BCF
:100D1C005A1E0192002BF9D102B07047000000203E
:100D2C00D34D6210002800F0F18170B582B00446FA
:100D3C00036813F0010F2CD0994B5B6803F00C0384
:100D4C00042B1DD0964B5B6803F00C03082B12D0C0
:100D5C006368B3F5803F41D0002B55D103F180433C
:100D6C0003F504331A6822F480321A601A6822F4EC
:100D7C0080221A6037E08A4B5B6813F4803FE7D01F
:100D8C00874B1B6813F4003F03D06368002B00F003
:100D9C00BF81236813F0020F75D0814B5B6813F091
:100DAC000C0F5FD07E4B5B6803F00C03082B54D008
:100DBC002369002B00F08A807A4B01221A60FFF71E
:100DCC00F5FD0546764B1B6813F0020F75D1FFF746
:100DDC00EDFD401B0228F5D903209EE1704A1368F3
:100DEC0043F480331360636843B3FFF7DFFD0546BC
:100DFC006B4B1B6813F4003FCBD1FFF7D7FD401BA7
:100E0C006428F5D9032088E1B3F5A02F09D0644BF1
:100E1C001A6822F480321A601A6822F480221A604E
:100E2C00E1E703F18043A3F53C331A6842F48022D6
:100E3C001A601A6842F480321A60D4E7FFF7B6FDE4
:100E4C000546574B1B6813F4003FA2D0FFF7AEFDCD
:100E5C00401B6428F5D903205FE1514B5B6813F408
:100E6C00803FA5D14E4B1B6813F0020F03D02369B2
:100E7C00012B40F04F814A4A136823F0F803616953
:100E8C0043EAC1031360236813F0080F33D0A3693E
:100E9C00002B5CD0434B0122C3F88024FFF786FD66
:100EAC0005463F4B5B6A13F0020F21D1FFF77EFD25
:100EBC00401B0228F5D903202FE1394A136823F08F
:100ECC00F803616943EAC1031360DCE7354B002288
:100EDC001A60FFF76BFD0546314B1B6813F0020FD0
:100EEC00D1D0FFF763FD401B0228F5D9032014E194
:100EFC000120FFF701FF236813F0040F00F0968028
:100F0C00274BDB6913F0805F34D1254BDA6942F053
:100F1C008052DA61DB6903F080530193019B012558
:100F2C00214B1B6813F4807F26D0E368012B3DD046
:100F3C00002B53D103F1804303F504331A6A22F0DA
:100F4C0001021A621A6A22F004021A6233E0154B8B
:100F5C000022C3F88024FFF729FD0546104B5B6A7D
:100F6C0013F0020FC7D0FFF721FD401B0228F5D963
:100F7C000320D2E00025D3E70B4A136843F48073B7
:100F8C001360FFF713FD0646074B1B6813F4807FB5
:100F9C00CBD1FFF70BFD801B6428F5D90320BCE0F7
:100FAC000010024000004242007000405F4A136A89
:100FBC0043F001031362E36833B3FFF7F7FC064613
:100FCC005A4B1B6A13F0020F2FD1FFF7EFFC801B5B
:100FDC0041F288339842F3D903209EE0052B09D0C7
:100FEC00524B1A6A22F001021A621A6A22F00402A7
:100FFC001A62E0E74D4B1A6A42F004021A621A6A4E
:10100C0042F001021A62D6E7FFF7D0FC0646474BC6
:10101C001B6A13F0020F08D0FFF7C8FC801B41F2CB
:10102C0088339842F3D9032077E0E5B9E369002BC4
:10103C0072D03E4A526802F00C02082A56D0022B9B
:10104C0017D03B4B00221A66FFF7B0FC0446374B17
:10105C001B6813F0007F47D0FFF7A8FC001B022889
:10106C00F5D9032059E0314AD36923F08053D36179
:10107C00DCE72F4B00221A66FFF798FC05462B4B3A
:10108C001B6813F0007F06D0FFF790FC401B022872
:10109C00F5D9032041E0236AB3F5803F1AD02349E8
:1010AC004B6823F47413226A606A024313434B6047
:1010BC001F4B01221A66FFF779FC04461B4B1B6879
:1010CC0013F0007F0ED1FFF771FC001B0228F5D93D
:1010DC00032022E0154A536823F40033A1680B4324
:1010EC005360DCE7002018E0002016E0012B16D03E
:1010FC000E4B5B6803F48031226A914211D103F4E8
:10110C007013626A93420ED1002006E001207047F2
:10111C00012002E0012000E0002002B070BD01209F
:10112C00FBE70120F9E70120F7E700BF00100240C0
:10113C00000042420F4B5B6803F00C02082A01D0FE
:10114C000D487047C3F383420C49885C13F4803F0D
:10115C000BD0084B5B68C3F34043094AD35C064A87
:10116C0002FB00F0B0FBF3F07047064B03FB00F002
:10117C00704700BF0010024000127A0034210008B2
:10118C003021000800093D00002800F0A08070B557
:10119C000D460446524B1B6803F007038B420BD2DF
:1011AC004F4A136823F007030B431360136803F0D3
:1011BC0007038B4240F08D80236813F0020F17D089
:1011CC0013F0040F04D0474A536843F4E0635360B0
:1011DC00236813F0080F04D0424A536843F4605359
:1011EC005360404A536823F0F003A1680B435360EB
:1011FC00236813F0010F31D06368012B20D0022B30
:10120C0025D0384A126812F0020F64D035494A686A
:10121C0022F0030213434B60FFF7C8FB0646314B29
:10122C005B6803F00C036268B3EB820F16D0FFF718
:10123C00BDFB801B41F288339842F0D9032045E076
:10124C00284A126812F4003FE0D101203EE0254A02
:10125C00126812F0007FD9D1012037E0204B1B68B7
:10126C0003F00703AB420AD91D4A136823F00703A6
:10127C002B431360136803F00703AB422DD1236893
:10128C0013F0040F06D0174A536823F4E063E168A7
:10129C000B435360236813F0080F07D0114A5368AF
:1012AC0023F46053216943EAC1035360FFF742FF03
:1012BC000C4B5B68C3F303130B4AD35CD8400B4B4A
:1012CC0018600B4B1868FFF72DFB002070BD012038
:1012DC0070470120FAE70120F8E70120F6E700BF8C
:1012EC0000200240001002402021000800000020D5
:1012FC0008000020014B1868704700BF0000002058
:10130C0008B5FFF7F7FF044B5B68C3F30223034AEE
:10131C00D35CD84008BD00BF001002401821000863
:10132C0008B5FFF7E7FF044B5B68C3F3C223034A1E
:10133C00D35CD84008BD00BF001002401821000843
:10134C0030B4026A036A23F00103036245688369BF
:10135C0023F073030C681C4322F002028B681343C6
:10136C000B4A904206D0456084614A68426303622E
:10137C0030BC704723F00803CA681A4322F00403F8
:10138C0025F440754A692A438D691543EBE700BF84
:10139C00002C014030B4036A026A22F480720262AB
:1013AC004468C26922F073020D68154323F400737C
:1013BC008A6843EA02230D4A904206D04460C56114
:1013CC004A68C263036230BC704723F40063CA6886
:1013DC0043EA022323F4806324F440544A6944EA28
:1013EC0002148A6944EA0214E8E700BF002C0140A9
:1013FC0030B4036A026A22F4805202624468C26901
:10140C0022F4E6420D6842EA052223F400538D686B
:10141C0043EA0533074DA84206D04460C2614A68CE
:10142C000264036230BC704724F480444D6944EA82
:10143C008514F2E7002C014010B4036A046A24F00E
:10144C0001040462846924F0F00C4CEA021223F0CB
:10145C000A030B438261036210BC704710B4036A29
:10146C00046A24F010040462846924F4704C4CEA7D
:10147C00023223F0A00343EA01138261036210BC21
:10148C007047836823F070030B4343F007038360BA
:10149C007047000090F83D30DBB2012B27D10223BE
:1014AC0080F83D300268D36843F00103D3600368D1
:1014BC00114A934210D0B3F1804F0DD0A2F5943263
:1014CC00934209D002F58062934205D01A6842F02B
:1014DC0001021A60002070479A6802F00702062A7F
:1014EC0007D01A6842F001021A60002070470120F0
:1014FC0070470020704700BF002C014070477047B8
:10150C0070477047704710B5044603681A6912F0AB
:10151C00020F11D0DA6812F0020F0DD06FF0020238
:10152C001A610123037703689B6913F0030F70D0D2
:10153C00FFF7E6FF0023237723681A6912F0040FE4
:10154C0012D0DA6812F0040F0ED06FF004021A6198
:10155C000223237723689B6913F4407F5FD02046D6
:10156C00FFF7CEFF0023237723681A6912F0080FC8
:10157C0012D0DA6812F0080F0ED06FF008021A6160
:10158C00042323772368DB6913F0030F4ED0204626
:10159C00FFF7B6FF0023237723681A6912F0100FA8
:1015AC0012D0DA6812F0100F0ED06FF010021A6120
:1015BC00082323772368DB6913F4407F3DD0204652
:1015CC00FFF79EFF0023237723681A6912F0010F9F
:1015DC0003D0DA6812F0010F36D123681A6912F0C1
:1015EC00800F03D0DA6812F0800F34D123681A69A7
:1015FC0012F0400F03D0DA6812F0400F32D123689A
:10160C001A6912F0200F03D0DA6812F0200F30D1D3
:10161C0010BDFFF774FF2046FFF773FF8AE72046E3
:10162C00FFF76DFF2046FFF76CFF9BE72046FFF7A7
:10163C0066FF2046FFF765FFACE72046FFF75FFF2C
:10164C002046FFF75EFFBDE76FF001021A612046EE
:10165C00FEF700FEC1E76FF080021A61204600F031
:10166C00EDFBC3E76FF040021A612046FFF74AFF1B
:10167C00C5E76FF020021A61204600F0DEFBC7E7D9
:10168C0003681B4A90420AD0B0F1804F07D0A2F5F4
:10169C009432904203D002F58062904203D123F041
:1016AC0070034A681343124A90420AD0B0F1804F3B
:1016BC0007D0A2F59432904203D002F5806290429A
:1016CC0003D123F44073CA68134323F080034A699F
:1016DC00134303608B68C3620B688362044B9842AC
:1016EC0002D00123436170470B690363F9E700BF24
:1016FC00002C014040B310B5044690F83D30F3B1D6
:10170C00022384F83D30214651F8040BFFF7B8FF53
:10171C00012384F8463084F83E3084F83F3084F856
:10172C00403084F8413084F8423084F8433084F8F7
:10173C00443084F8453084F83D30002010BD80F8EA
:10174C003C30FEF721FFDBE70120704740B310B5BA
:10175C00044690F83D30F3B1022384F83D30214625
:10176C0051F8040BFFF78CFF012384F8463084F802
:10177C003E3084F83F3084F8403084F8413084F8AF
:10178C00423084F8433084F8443084F8453084F88F
:10179C003D30002010BD80F83C30FFF7AFFEDBE79A
:1017AC0001207047002856D070B50D46044690F8BD
:1017BC003D30002B4AD0022384F83D3022689368D8
:1017CC0023F4804323F007039360214651F8040B64
:1017DC00FFF756FF21688B688A690E6A28681843E0
:1017EC0022F4407222F00302AB68D5F818C043EA29
:1017FC000C23134323F47C4323F0FC03EA68D5F851
:10180C001CC042EA0C221A432B6A1B03D5F810C0E9
:10181C0043EA0C13134326F022066A686D6942EA08
:10182C0005123243886021688B6123681A62012398
:10183C0084F8463084F83E3084F83F3084F84230E7
:10184C0084F8433084F83D30002070BD80F83C3083
:10185C00FEF7CAFEAFE701207047000030B4036A00
:10186C00026A22F0100202624468826922F4E642A3
:10187C000D6842EA052223F020038D6843EA051324
:10188C000C4DA84206D0446082614A6882630362B0
:10189C0030BC704723F08003CD6843EA051323F076
:1018AC00400324F440644D6944EA85048D6944EA9C
:1018BC008504E8E7002C014038B590F83C30012B4A
:1018CC0066D004460D46012380F83C300C2A5AD8C9
:1018DC00DFE802F0075959591B59595930595959D0
:1018EC0044000068FFF72CFD2268936943F008035D
:1018FC0093612268936923F00403936122689369CE
:10190C0029690B43936100203EE00068FFF7A6FFB6
:10191C002268936943F4006393612268936923F40A
:10192C008063936122689369296943EA0123936177
:10193C00002029E00068FFF72DFD2268D36943F0F1
:10194C000803D3612268D36923F00403D3612268AE
:10195C00D36929690B43D361002015E00068FFF7B8
:10196C0047FD2268D36943F40063D3612268D369CD
:10197C0023F48063D3612268D369296943EA012384
:10198C00D361002000E00120002384F83C3038BDF6
:10199C000220FCE710B4846824F47F4C42EA032252
:1019AC000A4342EA0C02826010BC704790F83C304B
:1019BC00012B78D010B50446012380F83C3002236B
:1019CC0080F83D300268936823F47F4323F077035B
:1019DC0093600B68602B4CD029D8402B54D00CD979
:1019EC00502B22D1CA6849680068FFF725FD5021A9
:1019FC002068FFF746FD002005E0202B0DD009D90B
:101A0C00302B0AD00120012384F83D30002384F8C8
:101A1C003C3010BD0BB1102B05D119462068FFF7D7
:101A2C0030FD0020EFE70120EDE70120EBE7B3F5F7
:101A3C00805F34D0B3F5005F0CD1CB684A688968FD
:101A4C000068FFF7A7FF2268936843F48043936014
:101A5C000020D8E7702B24D1CB684A6889680068CD
:101A6C00FFF798FF2268936843F077039360002098
:101A7C00C9E7CA6849680068FFF7F0FC6021206874
:101A8C00FFF7FFFC0020BEE7CA6849680068FFF753
:101A9C00D3FC40212068FFF7F4FC0020B3E70020C2
:101AAC00B1E70120AFE70220704710B50468A268C7
:101ABC0022F070024B68134323F007030A681A43A1
:101ACC00A2604B68502B32D00BD9602B36D0702BC8
:101ADC0043D10B698A68C9680068FFF75BFF002077
:101AEC000FE0402B0ED001D901200AE0202B2CD086
:101AFC0003D9302B2FD1002003E043B3102B28D176
:101B0C00002010BD0B68052B29D003681C6A1A6ACB
:101B1C0022F001021A620268936923F0F00309694A
:101B2C0043EA0113936103681C620020E9E70A6928
:101B3C0089680068FFF780FC0020E2E70A69896881
:101B4C000068FFF78BFC0020DBE70020D9E70020C2
:101B5C00D7E70120D5E70120D3E70120D1E7012009
:101B6C00CFE790F83C30012B22D010B5044601236E
:101B7C0080F83C30022380F83D30FFF796FF80B9A7
:101B8C002268D36823F04003D3602268D36823F41F
:101B9C008043D360012384F83D30002384F83C302B
:101BAC0010BD012084F83D00002384F83C30F7E799
:101BBC000220704701F01F014FF0010C0CFA01FCE0
:101BCC00036A23EA0C030362036A8A401343036229
:101BDC007047000010B50446084651BB94F83E30DF
:101BEC00DBB2013B18BF0123002B5BD1002839D19C
:101BFC00022384F83E30012201462068FFF7DAFF09
:101C0C0023682A4A93423DD02368284A93423ED007
:101C1C00B3F1804F3BD0A2F59432934237D002F50A
:101C2C008062934233D01A6842F001021A6000209D
:101C3C0039E0042908D008290DD094F84130DBB2E2
:101C4C00013B18BF0123CFE794F83F30DBB2013BD7
:101C5C0018BF0123C8E794F84030DBB2013B18BF32
:101C6C000123C1E7042805D0082807D0022384F8F3
:101C7C004130C0E7022384F83F30BCE7022384F8EC
:101C8C004030B8E75A6C42F400425A64BCE79A6898
:101C9C0002F00702062A07D01A6842F001021A6005
:101CAC00002000E0012010BD0020FCE7002C0140CA
:101CBC0038B5044690F83E00C0B294F83F3094F822
:101CCC004220D2B294F843C00D46B1B9012849D193
:101CDC00012A48D1022384F83E3084F842307DB387
:101CEC00042D39D0012200212068FFF763FF012267
:101CFC0004212068FFF75EFF27E0DBB25FFA8CFC63
:101D0C00042912D0012833D1012B2CD1012A31D135
:101D1C00BCF1010F30D1022384F83E3084F83F30FF
:101D2C0084F8423084F84330D9E7012B1CD1BCF144
:101D3C00010F1BD1022384F83F3084F84330CEE7E7
:101D4C00012200212068FFF735FF2268136843F059
:101D5C0001031360002006E0012204212068FFF734
:101D6C0029FFF2E7012038BD0120FCE71846FAE70D
:101D7C000120F8E71846F6E71046F4E790F83C2007
:101D8C00012A2CD010B40346012280F83C200222F8
:101D9C0080F83D2002685068946820F0700C086848
:101DAC0040EA0C0050601A680E4882420AD0B2F128
:101DBC00804F07D0A0F59430824203D000F58060AC
:101DCC00824204D124F080044968214391600122AD
:101DDC0083F83D20002083F83C0010BC70470220A3
:101DEC00704700BF002C0140024690F83C30012B9C
:101DFC0021D0012380F83C30CB6823F440738868F1
:101E0C00034323F480634868034323F400630868A6
:101E1C00034323F480530869034323F400534869B4
:101E2C00034323F48043C9690B4311684B640020BE
:101E3C0082F83C00704702207047704770470000E2
:101E4C0010B504460268136923F44053C1680B4370
:101E5C00136183680269134342691A430168CB68B2
:101E6C0023F4B05323F00C031343CB600268536983
:101E7C0023F4407381690B4353610268134B9A42FC
:101E8C0020D0FFF73DFA024602EB820202EB8202FF
:101E9C0063689B00B2FBF3F20D48A0FB02314909C9
:101EAC00642303FB11231B013233A0FB03035B09E7
:101EBC0003F0F00202EB011203F00F03216813444C
:101ECC008B6010BDFFF72CFA0246DDE700380140AD
:101EDC001F85EB5160B310B5044690F8413013B335
:101EEC00242384F841302268D36823F40053D36050
:101EFC002046FFF7A5FF2268136923F49043136172
:101F0C002268536923F02A0353612268D36843F48F
:101F1C000053D36000206064202384F8413084F89F
:101F2C004230606310BD80F84030FEF791FCD7E77B
:101F3C000120704770B5860747D0541E002A3ED04A
:101F4C000346CAB201E0013C39D303F8012B9D07CB
:101F5C00F9D1032C2CD9CDB205EB05250F2C1A4643
:101F6C0005EB054534D9A4F1100C2CF00F0603F148
:101F7C00100EB6444FEA1C1C156055609560D56078
:101F8C0010327245F8D10CF1010214F00C0F03EB76
:101F9C00021204F00F0C13D0ACF1040323F0030372
:101FAC000433134442F8045B9A42FBD10CF0030453
:101FBC002CB1C9B21C4403F8011B9C42FBD170BD6F
:101FCC0064461346002CF4D1F9E703461446C0E7E7
:101FDC00A446E1E770B50F4B0F4DAB42A3EB0506E2
:101FEC0007D00024B61055F8043B01349847A6429C
:101FFC00F9D800F07FF8094D094B5E1BAB424FEA54
:10200C00A60606D0002455F8043B01349847A64296
:10201C00F9D870BD4421000844210008442100086F
:10202C004C210008704700BF704700BF024B13B132
:10203C00024800F005B87047000000005920000865
:10204C00002301461A46184600F014B838B5074D5F
:10205C00074C2C1BA41005D0013C55F8043D9847A7
:10206C00002CF9D1BDE8384000F04AB850210008E6
:10207C004C2100082DE9F8431B4D0646286898466C
:10208C000F469146FFF7CEFF184B1C681CB328680F
:10209C0065681F2D22DC4EB96B1C0235636044F859
:1020AC002570FFF7C1FF0020BDE8F883012304EB86
:1020BC008501C1F88890D4F88821AB401A43022ED0
:1020CC00C4F88821C1F80881E6D1D4F88C211A43D0
:1020DC00C4F88C21E0E7064C1C60D8E7FFF7A4FF9E
:1020EC004FF0FF30E0E700BF0C0000209C01002007
:1020FC00A0010020F8B500BFF8BC08BC9E46704794
:0C210C00F8B500BFF8BC08BC9E46704748
:1021180000000000010203040000000000000000AD
:10212800010203040607080901020000020304056E
:0C213800060708090A0B0C0D0E0F101012
:082144003920000875010008B4
:04214C004D01000839
:102150000024F4000100000010000000980100209D
:04000005080008E502
:00000001FF
