:020000040800F2
:10000000005000209D1D0008E9180008EB180008AA
:10001000ED180008EF180008F118000800000000B3
:10002000000000000000000000000000F3180008BD
:10003000F518000800000000F7180008F91800087B
:10004000E51D0008E51D0008E51D0008E51D000888
:10005000E51D0008E51D0008E51D0008E51D000878
:10006000E51D0008E51D0008E51D0008E51D000868
:10007000E51D0008E51D0008E51D0008E51D000858
:10008000E51D0008E51D0008E51D0008E51D000848
:10009000E51D0008E51D0008E51D0008E51D000838
:1000A000E51D0008E51D0008E51D0008E51D000828
:1000B000E51D0008E51D000801190008E51D000800
:1000C000E51D0008E51D0008E51D0008E51D000808
:1000D000E51D0008E51D0008E51D0008E51D0008F8
:1000E000E51D0008E51D0008E51D000800000000F2
:1000F0000000000000000000000000000000000000
:0C01000000000000000000005FF808F1A3
:1001100081F0004102E000BF83F0004330B54FEAB8
:1001200041044FEA430594EA050F08BF90EA020F25
:100130001FBF54EA000C55EA020C7FEA645C7FEAB8
:10014000655C00F0E2804FEA5454D4EB5555B8BFDB
:100150006D420CDD2C4480EA020281EA030382EA4C
:10016000000083EA010180EA020281EA0303362DDE
:1001700088BF30BD11F0004F4FEA01314FF4801CB1
:100180004CEA113102D0404261EB410113F0004FC3
:100190004FEA03334CEA133302D0524263EB43037A
:1001A00094EA050F00F0A780A4F10104D5F1200E18
:1001B0000DDB02FA0EFC22FA05F2801841F1000173
:1001C00003FA0EF2801843FA05F359410EE0A5F147
:1001D00020050EF1200E012A03FA0EFC28BF4CF078
:1001E000020C43FA05F3C01851EBE37101F000452E
:1001F00007D54FF0000EDCF1000C7EEB00006EEB3B
:100200000101B1F5801F1BD3B1F5001F0CD34908C4
:100210005FEA30004FEA3C0C04F101044FEA44521B
:1002200012F5800F80F09A80BCF1004F08BF5FEAA2
:10023000500C50F1000041EB045141EA050130BD82
:100240005FEA4C0C404141EB0101013C28BFB1F594
:10025000801FE9D291F0000F04BF01460020B1FADF
:1002600081F308BF2033A3F10B03B3F120020CDAB2
:100270000C3208DD02F1140CC2F10C0201FA0CF090
:1002800021FA02F10CE002F11402D8BFC2F1200CF5
:1002900001FA02F120FA0CFCDCBF41EA0C019040AB
:1002A000E41AA2BF01EB0451294330BD6FEA0404F4
:1002B0001F3C1CDA0C340EDC04F11404C4F12002DF
:1002C00020FA04F001FA02F340EA030021FA04F3F1
:1002D00045EA030130BDC4F10C04C4F1200220FA48
:1002E00002F001FA04F340EA0300294630BD21FA86
:1002F00004F0294630BD94F0000F83F4801306BF4C
:1003000081F480110134013D4EE77FEA645C18BF3F
:100310007FEA655C29D094EA050F08BF90EA020FD6
:1003200005D054EA000C04BF1946104630BD91EACE
:10033000030F1EBF0021002030BD5FEA545C05D1D1
:100340004000494128BF41F0004130BD14F5800410
:100350003CBF01F5801130BD01F0004545F0FE4184
:1003600041F470014FF0000030BD7FEA645C1ABFB9
:10037000194610467FEA655C1CBF0B46024650EAF0
:10038000013406BF52EA033591EA030F41F400211C
:1003900030BD00BF90F0000F04BF0021704730B5A2
:1003A0004FF4806404F132044FF000054FF0000177
:1003B00050E700BF90F0000F04BF0021704730B538
:1003C0004FF4806404F1320410F0004548BF40420D
:1003D0004FF000013EE700BF42004FEAE2014FEA62
:1003E00031014FEA02701FBF12F07F4393F07F4F3D
:1003F00081F06051704732F07F4208BF704793F040
:100400007F4F04BF41F40021704730B54FF4607452
:1004100001F0004521F000411CE700BF50EA010255
:1004200008BF704730B54FF000050AE050EA0102FE
:1004300008BF704730B511F0004502D5404261EB6E
:1004400041014FF4806404F132045FEA915C3FF4AF
:10045000D8AE4FF003025FEADC0C18BF03325FEA4C
:10046000DC0C18BF033202EBDC02C2F1200300FAFD
:1004700003FC20FA02F001FA03FE40EA0E0021FA22
:1004800002F11444BDE600BF70B54FF0FF0C4CF410
:10049000E06C1CEA11541DBF1CEA135594EA0C0FC2
:1004A00095EA0C0F00F0DEF82C4481EA030621EAFD
:1004B0004C5123EA4C5350EA013518BF52EA033538
:1004C00041F4801143F4801338D0A0FB02CE4FF0EA
:1004D0000005E1FB02E506F00042E0FB03E54FF01A
:1004E0000006E1FB03569CF0000F18BF4EF0010E12
:1004F000A4F1FF04B6F5007F64F5407404D25FEA0E
:100500004E0E6D4146EB060642EAC62141EA5551C0
:100510004FEAC52040EA5E504FEACE2EB4F1FD0C02
:1005200088BFBCF5E06F1ED8BEF1004F08BF5FEA80
:10053000500E50F1000041EB045170BD06F0004632
:1005400046EA010140EA020081EA0301B4EB5C04DF
:10055000C2BFD4EB0C0541EA045170BD41F48011D7
:100560004FF0000E013C00F3AB8014F1360FDEBFFC
:10057000002001F0004170BDC4F10004203C35DAD8
:100580000C341BDC04F11404C4F1200500FA05F35B
:1005900020FA04F001FA05F240EA020001F00042FC
:1005A00021F0004110EBD37021FA04F642EB060172
:1005B0005EEA430E08BF20EAD37070BDC4F10C049C
:1005C000C4F1200500FA04F320FA05F001FA04F260
:1005D00040EA020001F0004110EBD37041F100014C
:1005E0005EEA430E08BF20EAD37070BDC4F1200557
:1005F00000FA05F24EEA020E20FA04F301FA05F2BF
:1006000043EA020321FA04F001F0004121FA04F266
:1006100020EA020000EBD3705EEA430E08BF20EA36
:10062000D37070BD94F0000F0FD101F00046400070
:1006300041EB010111F4801F08BF013CF7D041EAF2
:10064000060195F0000F18BF704703F000465200F6
:1006500043EB030313F4801F08BF013DF7D043EAC7
:100660000603704794EA0C0F0CEA135518BF95EA7D
:100670000C0F0CD050EA410618BF52EA4306D1D104
:1006800081EA030101F000414FF0000070BD50EA23
:10069000410606BF1046194652EA430619D094EAAD
:1006A0000C0F02D150EA013613D195EA0C0F05D197
:1006B00052EA03361CBF104619460AD181EA0301EB
:1006C00001F0004141F0FE4141F470014FF00000A3
:1006D00070BD41F0FE4141F4780170BD70B54FF03E
:1006E000FF0C4CF4E06C1CEA11541DBF1CEA1355BE
:1006F00094EA0C0F95EA0C0F00F0A7F8A4EB0504A0
:1007000081EA030E52EA03354FEA013100F0888096
:100710004FEA03334FF0805545EA131343EA12635F
:100720004FEA022245EA111545EA10654FEA002614
:100730000EF000419D4208BF964244F1FD0404F5CD
:10074000407402D25B084FEA3202B61A65EB030529
:100750005B084FEA32024FF480104FF4002CB6EBE6
:10076000020E75EB030E22BFB61A754640EA0C0066
:100770005B084FEA3202B6EB020E75EB030E22BFA6
:10078000B61A754640EA5C005B084FEA3202B6EBE7
:10079000020E75EB030E22BFB61A754640EA9C00A6
:1007A0005B084FEA3202B6EB020E75EB030E22BF76
:1007B000B61A754640EADC0055EA060E18D04FEA34
:1007C000051545EA16754FEA06164FEAC30343EAD4
:1007D00052734FEAC2025FEA1C1CC0D111F4801FA1
:1007E0000BD141EA00014FF000004FF0004CB6E79A
:1007F00011F4801F04BF01430020B4F1FD0C88BF39
:10080000BCF5E06F3FF6AFAEB5EB030C04BFB6EB43
:10081000020C5FEA500C50F1000041EB045170BD36
:100820000EF0004E4EEA113114EB5C04C2BFD4EB63
:100830000C0541EA045170BD41F480114FF0000EE7
:10084000013C90E645EA060E8DE60CEA135594EA63
:100850000C0F08BF95EA0C0F3FF43BAF94EA0C0F66
:100860000AD150EA01347FF434AF95EA0C0F7FF4DB
:1008700025AF104619462CE795EA0C0F06D152EA2F
:1008800003353FF4FDAE1046194622E750EA410613
:1008900018BF52EA43067FF4C5AE50EA41047FF424
:1008A0000DAF52EA43057FF4EBAE12E74FF0FF3C89
:1008B00006E000BF4FF0010C02E000BF4FF0010C5A
:1008C0004DF804CD4FEA410C7FEA6C5C4FEA430CD3
:1008D00018BF7FEA6C5C1BD001B050EA410C0CBF22
:1008E00052EA430C91EA030F02BF90EA020F002084
:1008F000704710F1000F91EA030F58BF994208BFEB
:1009000090422CBFD8176FEAE37040F001007047A7
:100910004FEA410C7FEA6C5C02D150EA013C07D1FE
:100920004FEA430C7FEA6C5CD6D152EA033CD3D049
:100930005DF8040B704700BF8446104662468C4643
:100940001946634600E000BF01B5FFF7B7FF002876
:1009500048BF10F1000F01BD4DF808EDFFF7F4FF9F
:100960000CBF012000205DF808FB00BF4DF808ED2A
:10097000FFF7EAFF34BF012000205DF808FB00BF4D
:100980004DF808EDFFF7E0FF94BF012000205DF86F
:1009900008FB00BF4DF808EDFFF7CEFF94BF012024
:1009A00000205DF808FB00BF4DF808EDFFF7C4FF1D
:1009B00034BF012000205DF808FB00BF4FEA410270
:1009C00012F5001215D211D56FF47873B3EB6252A1
:1009D00012D94FEAC12343F0004343EA505311F0C8
:1009E000004F23FA02F018BF404270474FF000005A
:1009F000704750EA013005D111F0004008BF6FF098
:100A0000004070474FF00000704700BF80F000408A
:100A100002E000BF81F0004142001FBF5FEA4103D6
:100A200092EA030F7FEA226C7FEA236C6AD04FEAD6
:100A30001262D2EB1363C1BFD2184140484041401B
:100A4000B8BF5B42192B88BF704710F0004F40F4CD
:100A5000000020F07F4018BF404211F0004F41F4E9
:100A6000000121F07F4118BF494292EA030F3FD0B5
:100A7000A2F1010241FA03FC10EB0C00C3F12003C8
:100A800001FA03F100F0004302D5494260EB400057
:100A9000B0F5000F13D3B0F1807F06D340084FEAC2
:100AA000310102F10102FE2A51D2B1F1004F40EBB7
:100AB000C25008BF20F0010040EA0300704749001F
:100AC00040EB0000013A28BFB0F5000FEDD2B0FABC
:100AD00080FCACF1080CB2EB0C0200FA0CF0AABFDF
:100AE00000EBC25052421843BCBFD040184370477D
:100AF00092F0000F81F4000106BF80F40000013283
:100B0000013BB5E74FEA41037FEA226C18BF7FEA59
:100B1000236C21D092EA030F04D092F0000F08BF9B
:100B20000846704790EA010F1CBF0020704712F082
:100B30007F4F04D1400028BF40F00040704712F1C1
:100B400000723CBF00F50000704700F0004343F026
:100B5000FE4040F4000070477FEA226216BF08465C
:100B60007FEA23630146420206BF5FEA412390EA1F
:100B7000010F40F4800070474FF0000304E000BF15
:100B800010F0004348BF40425FEA000C08BF7047C6
:100B900043F0964301464FF000001CE050EA01028A
:100BA00008BF70474FF000030AE000BF50EA01029F
:100BB00008BF704711F0004302D5404261EB41018C
:100BC0005FEA010C02BF84460146002043F0B643B1
:100BD00008BFA3F18053A3F50003BCFA8CF2083AD6
:100BE000A3EBC25310DB01FA02FC634400FA02FCDF
:100BF000C2F12002BCF1004F20FA02F243EB0200E6
:100C000008BF20F00100704702F1200201FA02FC47
:100C1000C2F1200250EA4C0021FA02F243EB02003A
:100C200008BF20EADC7070474FF0FF0C1CEAD0527E
:100C30001EBF1CEAD15392EA0C0F93EA0C0F6FD03F
:100C40001A4480EA010C400218BF5FEA41211ED01D
:100C50004FF0006343EA501043EA5111A0FB013109
:100C60000CF00040B1F5000F3EBF490041EAD371DE
:100C70005B0040EA010062F17F02FD2A1DD8B3F15A
:100C8000004F40EBC25008BF20F00100704790F0C9
:100C9000000F0CF0004C08BF49024CEA502040EA1B
:100CA00051207F3AC2BFD2F1FF0340EAC2507047E1
:100CB00040F400004FF00003013A5DDC12F1190F1F
:100CC000DCBF00F000407047C2F10002410021FA91
:100CD00002F1C2F1200200FA02FC5FEA310040F1A9
:100CE000000053EA4C0308BF20EADC70704792F022
:100CF000000F00F0004C02BF400010F4000F013A5A
:100D0000F9D040EA0C0093F0000F01F0004C02BF54
:100D1000490011F4000F013BF9D041EA0C018FE7C3
:100D20000CEAD15392EA0C0F18BF93EA0C0F0AD0C9
:100D300030F0004C18BF31F0004CD8D180EA0100EF
:100D400000F00040704790F0000F17BF90F0004F88
:100D5000084691F0000F91F0004F14D092EA0C0F6A
:100D600001D142020FD193EA0C0F03D14B0218BFFD
:100D7000084608D180EA010000F0004040F0FE4043
:100D800040F40000704740F0FE4040F440007047DF
:100D90004FF0FF0C1CEAD0521EBF1CEAD15392EA5E
:100DA0000C0F93EA0C0F69D0A2EB030280EA010C4E
:100DB00049024FEA402037D04FF0805343EA1111E7
:100DC00043EA10130CF000408B4238BF5B0042F145
:100DD0007D024FF4000C8B4224BF5B1A40EA0C00EA
:100DE000B3EB510F24BFA3EB510340EA5C00B3EB1C
:100DF000910F24BFA3EB910340EA9C00B3EBD10F0A
:100E000024BFA3EBD10340EADC001B0118BF5FEA5B
:100E10001C1CE0D1FD2A3FF650AF8B4240EBC25084
:100E200008BF20F0010070470CF0004C4CEA502045
:100E30007F32C2BFD2F1FF0340EAC250704740F494
:100E400000004FF00003013A37E792F0000F00F086
:100E5000004C02BF400010F4000F013AF9D040EA04
:100E60000C0093F0000F01F0004C02BF490011F498
:100E7000000F013BF9D041EA0C0195E70CEAD15390
:100E800092EA0C0F08D142027FF47DAF93EA0C0F77
:100E90007FF470AF084676E793EA0C0F04D14B025B
:100EA0003FF44CAF08466EE730F0004C18BF31F00D
:100EB000004CCAD130F000427FF45CAF31F0004307
:100EC0007FF43CAF5FE700BF4FEA410C7FEA6C5C08
:100ED00002D150EA013C0AD14FEA430C7FEA6C5C34
:100EE00002D152EA033C02D14FF0000070474FF0AC
:100EF000010070470348044B834202D0034B03B107
:100F000018477047D8010020D801002000000000D9
:100F10000548064B1B1AD90F01EBA301491002D05B
:100F2000034B03B118477047D8010020D8010020B7
:100F30000000000010B5064C237843B9FFF7DAFF34
:100F4000044B13B10448AFF300800123237010BD9C
:100F5000D8010020000000001C48000808B5054B1F
:100F60001BB105490548AFF30080BDE80840FFF715
:100F7000CFBF00BF00000000DC0100201C480008BB
:100F80002DE9F04188B00024049405940694079458
:100F90002A4B9A6942F020029A619A6902F0200273
:100FA0000192019A9A6942F004029A619A6902F0E8
:100FB00004020292029A9A6942F008029A619B69BD
:100FC00003F008030393039B1D4D01224021284693
:100FD00001F0EEF822468021284601F0E9F8194E8A
:100FE00022460121304601F0E3F801220221304679
:100FF00001F0DEF8402304934FF00108CDF814808F
:1010000006940223079304A9284600F0C3FF802317
:101010000493CDF8148006940327079704A9284663
:1010200000F0B8FF0497CDF814800694079704A940
:10103000304600F0AFFF08B0BDE8F081001002407C
:1010400000080140000C014008B50B480B4B036041
:101050000B4B436000238360C3604FF48042026106
:1010600043618361C361036201F032FB00B908BDD3
:1010700000F098F8FBE700BF480200200054004051
:10108000801A060008B50B480B4B03600B4B4360FE
:1010900000238360C3604FF4804202614361836137
:1010A000C361036201F014FB00B908BD00F07AF8D7
:1010B000FBE700BFF401002000580040801A060042
:1010C00010B588B000230493059306930793036833
:1010D000264A934204D0264A934227D008B010BD36
:1010E000244CA36943F00803A361A36903F0080338
:1010F0000093009B4FF44073049312230593032342
:10110000079304A91C4800F045FF1C4A536843F0AC
:10111000E06343F002035360E36943F40013E361C7
:10112000E36903F400130193019BD7E7114CA36912
:1011300043F00803A361A36903F008030293029B31
:101140004FF440630493122305930323079304A9E8
:10115000094800F01FFFE36943F48003E361E3699A
:1011600003F480030393039BB8E700BF00540040DF
:101170000058004000100240000C014000000140F7
:101180000268064B9A4200D07047054B1B6844F634
:1011900020625A639A63DA63F6E700BF00080040F2
:1011A000DC03002072B6FEE700B591B028220021D2
:1011B00006A802F0DFFE0023019302930393049339
:1011C0000593012206924FF4803307930A9202227C
:1011D0000D920E934FF4E0130F9306A801F0C2FD99
:1011E00080B90F23019302210291002303934FF44E
:1011F00080620492059301A801F0E6FF20B911B0C6
:101200005DF804FBFFF7CEFFFFF7CCFF0000000006
:1012100038B500F00FFEFFF7C7FFFFF7B1FE00F093
:10122000C7FC00F077FB00F0A7FB00F059FD00F0D1
:10123000D5FBFFF709FFFFF725FF3F4C204602F0E3
:1012400049F93E4D0021284602F0E4FC04212846DD
:1012500002F0E0FC0821284602F0DCFC384D0021B9
:10126000284602F045FD0421284602F041FD0021F8
:10127000204602F03DFD0421204602F039FD2A6897
:10128000D36843F00103D3602368D96841F00101BA
:10129000D96047F23051516259622A4800F060F833
:1012A0000128FAD0284D2946264800F0ADF9274CF0
:1012B00000224021204600F07BFF012280212046B1
:1012C00000F076FF04F5806400220121204600F042
:1012D0006FFF01220221204600F06AFF00221C4B12
:1012E000D5E91401FFF7D0F802460B460020194952
:1012F000FEF712FFFFF762FB174B18600F4B1C68DD
:101300006063A063D5E9140102460B46FEF706FFB1
:1013100002460B4606A1D1E90001FEF7FDFEFFF7EC
:101320004DFB0E4B1860E0630A2000F0A7FDB9E703
:1013300000000000007097404C030020DC030020F8
:1013400094030020F4010020A002002000080140C6
:10135000000014400040BF40FC020020F8020020C2
:101360002DE9F04186B005466423029301230193E1
:101370000DF1170200927522D02101F039FB9DF882
:101380001730682B03D0012006B0BDE8F08100249F
:101390008DF816404FF06408CDF8088001260196BC
:1013A0000DF11607009733466B22D021284601F035
:1013B0006DFA07238DF81630CDF808800196009756
:1013C00033461922D021284601F060FA8DF81640E4
:1013D000CDF808800196009733461C22D02128467C
:1013E00001F054FA8DF81640CDF808800196009768
:1013F00033461B22D021284601F048FA2046C3E795
:101400002DE9F04792B08246CDE90823D0E90834AF
:10141000CDE904341A462346DDE91A01FEF77CFEC5
:10142000DAE90645DDE91C23FFF72EF802460B46F4
:1014300020462946FEF772FE06460F46CDE90A67AA
:10144000CAE90667DAE90A89DAE910120C46154694
:10145000DDE91C23CDE9064520462946FFF714F8AF
:1014600002460B46CDE90023DAE90C6732463B46DB
:10147000FEF752FEDAE90E4522462B46FEF74CFEF9
:10148000DAE90023FEF74AFEDDE91C23FEF7FCFF44
:1014900002460B4640464946FEF740FE80468946D6
:1014A000CAE90A89DDE9002330463946FEF734FEF1
:1014B0000A460146CDE90C12CAE90C12DDE9002307
:1014C00020462946FEF728FE03460C46CDE90234A5
:1014D000CAE90E34DDE91C23DAE90201FEF7D4FF84
:1014E00002460B46DDE90601FEF718FE05460E46EC
:1014F000CDE90656CAE91056DAE9042340464946C2
:10150000FEF70CFE06460F4602460B46404649468D
:10151000FFF7E4F804460D46CDE90E4532463B465A
:10152000DDE90201FFF7DAF806460F46CDE900676C
:10153000CDE91067DDE90A6732463B46DDE908017F
:10154000FEF7EAFD02460B46CDE908232046294670
:10155000FEF79AFF02460B4630463946FEF7DEFD9F
:1015600006460F46CAE90667DDE90823DDE9000102
:10157000FEF78AFF02460B46DDE90401FEF7CEFDC9
:10158000CAE9080122462B4640464946FEF77CFF41
:1015900002460B4640464946FEF7BEFDCAE90A012F
:1015A00022462B46DDE90C4520462946FEF76CFF16
:1015B00002460B4620462946FEF7AEFDCAE90C015D
:1015C000DDE9002340464946FEF75EFF02460B4632
:1015D000DDE90201FEF7A0FDCAE90E01DDE9002305
:1015E00020462946FEF750FF02460B46DDE906017C
:1015F000FEF792FDCAE910013046394612B0BDE847
:10160000F0870000000000002DE9F04F89B00C4683
:10161000642302930E23019304AB009301233B2226
:10162000D02101F0E5F99DF810309DF8110040EA55
:10163000032000B220809DF812309DF8138048EA04
:1016400003280FFA88F8A4F802809DF814309DF85A
:10165000157047EA03273FB2A7809DF816502D0268
:101660002DB29DF817301D439DF818309DF819A034
:101670004AEA032A0FFA8AFAA4F820A09DF81A3041
:101680009DF81B9049EA03290FFA89F9A4F82290E2
:101690009DF81C309DF81D6046EA032636B2A684EC
:1016A000FEF788FE0022764BFEF7EEFEC4E902014B
:1016B0004046FEF77FFE0022714BFEF7E5FEC4E9CF
:1016C00004013846FEF776FE67A3D3E90023FFF74F
:1016D00005F8C4E906012846FFF752FA6949FFF701
:1016E00057FB6949FFF798F920645046FEF762FE00
:1016F0005FA3D3E90023FEF7F1FFC4E90A014846DE
:10170000FEF758FE5AA3D3E90023FEF7E7FFC4E92A
:101710000C013046FEF74EFE55A3D3E90023FEF739
:10172000DDFFC4E90E0100F0A3FB584D2B68C01A81
:10173000FEF730FE0022564BFEF7D0FF804689466A
:1017400000F096FB2860B4F90050B4F9046006FB81
:1017500006F005FB0500FEF72DFE02F0F3FC8246C5
:101760008B4600220023FFF7F7F8002866D1B4F972
:101770000200FEF71FFE52465B46FEF7AFFF02F087
:101780000BFD3DA3D3E90023FEF77EFE82468B4688
:101790006D423046FEF70EFE06460F462846FEF71F
:1017A00009FE32463B4602F0CBFC33A3D3E90023CB
:1017B000FEF76AFE06460F460022364BFFF7D6F8C4
:1017C00030B10022344BD4E91401FFF7EDF878B9B9
:1017D0000022314B30463946FFF7E6F8002832D078
:1017E00000222C4BD4E91401FFF7C0F800282AD0BE
:1017F0002A4BC3E90667C4E91467D4E914231046E9
:1018000023F000410022244BFFF7CEF830B1D4E999
:101810000A23104603F10041C4E90A01CDE9028917
:10182000D4E90A23CDE9002352465B461C48FFF762
:10183000E7FDC4E9120109B0BDE8F08F4FF0000ADE
:101840004FF0000BA4E7CDE90289D4E90C23CDE9E0
:10185000002332463B461148FFF7D2FDC4E914018C
:10186000CBE700BFAFF30080000000000029CC40B0
:101870000000000000606040F8C1631ADCA54C4025
:101880000000103F0000AA43B81E124200030020CF
:1018900000408F40008056C000805640000000206D
:1018A0004800002082B00E4B9A6942F001029A6112
:1018B0009A6902F001020092009ADA6942F08052BD
:1018C000DA61DB6903F080530193019B054A536899
:1018D00023F0E06343F00073536002B0704700BF31
:1018E0000010024000000140FEE7FEE7FEE7FEE7D1
:1018F000FEE770477047704708B500F0ADFA08BDC5
:1019000008B5024801F01FFE08BD00BF0403002017
:101910007047000000B58DB02422002103A802F01A
:1019200029FB00230193029312484FF0804202608A
:10193000436083604FF6FF72C260036183610323DB
:10194000039301230593099303A901F04BFF50B9B9
:1019500000230193029301A9064802F02FFA28B947
:101960000DB05DF804FBFFF71DFCF1E7FFF71AFC73
:10197000F6E700BF9403002000B58DB024220021BB
:1019800003A802F0F7FA0023019302931148124AC8
:101990000260436083604FF6FF72C260036183613F
:1019A0000323039301230593099303A901F01AFF6D
:1019B00050B900230193029301A9064802F0FEF9F1
:1019C00028B90DB05DF804FBFFF7ECFBF1E7FFF77A
:1019D000E9FBF6E74C0300200004004000B587B0A7
:1019E00000230293039304930593009301931548F6
:1019F000154A026047224260836042F20F72C26061
:101A00000361836101F096FE90B94FF48053029315
:101A100002A90C4801F0EAFF68B900230093019382
:101A20006946084802F0CAF940B907B05DF804FBFE
:101A3000FFF7B8FBE9E7FFF7B5FBEEE7FFF7B2FB0F
:101A4000F3E700BF040300200008004000B583B0A6
:101A50000368134A934205D0124A93420DD003B053
:101A60005DF804FB104B9A6942F400629A619B692D
:101A700003F400630093009BF1E70B4BDA6942F03B
:101A80000402DA61DB6903F004030193019B002285
:101A900001211E2000F04CFA1E2000F059FADEE76A
:101AA000002C0140000800400010024000B589B041
:101AB000002304930593069307930368B3F1804FC3
:101AC00005D0224A93421DD009B05DF804FB03F50E
:101AD0000433DA6942F00102DA61DA6902F00102E4
:101AE0000092009A9A6942F004029A619B6903F09D
:101AF00004030193019B0323049304A9144800F0F9
:101B000049FAE1E7134BDA6942F00202DA61DA6975
:101B100002F002020292029A9A6942F008029A6165
:101B20009B6903F008030393039B3023049304A9E8
:101B3000094800F02FFA094A536823F4406343F040
:101B4000E06343F400635360BEE700BF000400405D
:101B50000008014000100240000C0140000001405C
:101B600000B587B0002302930393049305930268A2
:101B70000D4B9A4202D007B05DF804FB03F56443B5
:101B80009A6942F004029A619B6903F0040301938D
:101B9000019B4FF4E063029302230393059302A990
:101BA000024800F0F7F9E6E7002C01400008014088
:101BB00010B59AB00024169417941894199411949F
:101BC00012941394149415940F94109408940994F7
:101BD0000A940B940C940D940E942022214668468E
:101BE00002F0C8F93C483D4B0360472343608460E2
:101BF00044F61F63C360046144618023836101F084
:101C000099FD00284DD14FF48053169316A9324800
:101C100001F0ECFE002847D12F4801F0B7FD002865
:101C200045D100231193129311A92B4801F0B9FF5C
:101C300000283FD100230F9310930FA9264802F0EC
:101C4000BDF8002839D160230893002209920A9236
:101C50000B920C920D920E9208A91F4801F04CFEB7
:101C600070BB042208A91C4801F046FE58BB08229C
:101C700008A9194801F040FE40BB002300930193DE
:101C80000293039304934FF400520592079369461D
:101C9000114802F0C9F8E0B90F48FFF761FF1AB028
:101CA00010BDFFF77FFAAEE7FFF77CFAB4E7FFF766
:101CB00079FAB6E7FFF776FABCE7FFF773FAC2E7FF
:101CC000FFF770FACDE7FFF76DFAD0E7FFF76AFA92
:101CD000D3E7FFF767FADFE7DC030020002C0140C1
:101CE00008B50A480A4B03604FF4E1334360002310
:101CF0008360C36003610C2242618361C36102F0AF
:101D000009F900B908BDFFF74DFAFBE724040020EC
:101D10000038014010B586B000230293039304936A
:101D2000059302681A4B9A4201D006B010BD03F524
:101D300058439A6942F480429A619A6902F4804257
:101D40000092009A9A6942F008029A619B6903F036
:101D500008030193019B402302930223039303236F
:101D600005930C4C02A9204600F014F9802302933D
:101D700000230393049302A9204600F00BF9064ABE
:101D8000536843F0E06343F004035360CDE700BFC2
:101D900000380140000C014000000140FFF7B8FD91
:101DA0000B480C490C4A002302E0D458C4500433B9
:101DB000C4188C42F9D3094A094C002301E013608E
:101DC0000432A242FBD302F02BF9FFF721FA70474D
:101DD00000000020D8010020E4480008D8010020BD
:101DE00040070020FEE7000010B504460E4B1A78AD
:101DF0004FF47A73B3FBF2F30C4A1068B0FBF3F0C4
:101E000000F0B4F868B90F2C01D901200AE00022D3
:101E100021464FF0FF3000F08BF8054B1C6000208E
:101E200000E0012010BD00BF9400002090000020C1
:101E30009800002008B5074A136843F010031360A8
:101E4000032000F063F80F20FFF7CEFFFFF72AFD15
:101E5000002008BD00200240034A1168034B1B7894
:101E60000B441360704700BF6C04002094000020F6
:101E7000014B1868704700BF6C04002038B5044659
:101E8000FFF7F6FF0546B4F1FF3F02D0044B1B7885
:101E90001C44FFF7EDFF401BA042FAD338BD00BF42
:101EA00094000020002808DB0901C9B200F160405D
:101EB00000F5614080F80013704700F00F00090141
:101EC000C9B2014B1954704714ED00E000B500F0A1
:101ED0000700C0F1070CBCF1040F28BF4FF0040C41
:101EE000031D062B0FD9C31E4FF0FF3E0EFA0CF058
:101EF00021EA000199400EFA03FE22EA0E0241EAAD
:101F000002005DF804FB0023EEE70000074AD368F7
:101F100023F4E0631B041B0C000200F4E0600343A5
:101F200043F0BF6343F40033D360704700ED00E03B
:101F300010B50446054BD868C0F30220FFF7C6FF72
:101F400001462046FFF7AEFF10BD00BF00ED00E0E8
:101F5000002807DB00F01F02400901239340024ADA
:101F600042F82030704700BF00E100E00138B0F1D6
:101F7000807F0BD24FF0E0235861054AF02182F8B0
:101F800023100020986107221A61704701207047D2
:101F900000ED00E070B582B00024A446A2E07E4DC2
:101FA000AB4210D007D97D4DAB420CD005F5803542
:101FB000AB4208D013E0A5F58015AB4203D005F580
:101FC0007025AB4207D18B68002B55D0012B4ED02A
:101FD0004261082403E0A5F58015AB42F3D0BEF1C1
:101FE000FF0F4BD806464FEA8C0233680F25954009
:101FF00023EA050304FA02F2134333604B6813F03B
:10200000805F6DD0664B9A6942F001029A619B69CC
:1020100003F001030193019B4FEA9C02951C614B65
:1020200053F825600CF00305AD000F23AB4026EA02
:1020300003065D4B984228D003F58063984200F078
:102040008D8003F58063984200F08A8003F58063F9
:10205000984218D0042319E0CC68C0E7CC68043457
:10206000BDE7CC680834BAE7CC680C34B7E7026146
:102070000824B4E70024B2E70424B0E7061DACF15D
:1020800008029200B1E7032300E00023AB40334392
:102090000232444D45F822304B6813F4801F61D062
:1020A000424A936843EA0E0393604B6813F4001F9F
:1020B0005ED03E4AD36843EA0E03D3604B6813F404
:1020C000003F5BD0394A536843EA0E0353604B68C4
:1020D00013F4803F58D0354A136843EA0E03136067
:1020E0000CF1010C0B6833FA0CF253D0012202FA06
:1020F0000CF203EA020E32EA0303F1D14B68122B11
:102100003FF64DAF122B3FF66AAF01A555F823F00D
:10211000C71F000859200008632000087520000828
:10212000DF1F0008DF1F0008DF1F0008DF1F000897
:10213000DF1F0008DF1F0008DF1F0008DF1F000887
:10214000DF1F0008DF1F0008DF1F0008DF1F000877
:10215000DF1F00085D20000869200008012395E7C3
:10216000022393E7114A936823EA0E0393609CE7E6
:102170000E4AD36823EA0E03D3609FE70B4A5368E5
:1021800023EA0E035360A2E7084A136823EA0E030A
:102190001360A5E702B070BD0000221000003110EE
:1021A000001002400000014000080140000401400E
:1021B0000AB10161704709040161704703685A69F7
:1021C00012F4806F01D1002070476FF480625A6171
:1021D00000230363202280F83D2080F83E30026C0B
:1021E00042F00402026480F83C30012070472DE97F
:1021F000F04106460C46174698463BE0FFF738FE8E
:10220000069BC01A404502D8B8F1000F32D1012D0B
:1022100018D033689B6924EA03039BB2B3FA83F3B3
:102220005B099F4226D100233363202286F83D209C
:1022300086F83E30326C42F02002326486F83C3040
:10224000012027E033685B6924EA03039BB2B3FAF9
:1022500083F35B09E5E733685B6924EA030C1FFA43
:102260008CFCBCFA8CFC4FEA5C1C674511D1B8F1C0
:10227000FF3FC3D1C4F30745012DECD033689B6900
:1022800024EA030C1FFA8CFCBCFA8CFC4FEA5C1CA1
:10229000EBE70020BDE8F0812DE9F84305460E4646
:1022A0009046994653E01A6842F400721A602B680F
:1022B0006FF480625A6100232B63202285F83D2051
:1022C00085F83E302A6C42F004022A6485F83C30DE
:1022D00001204AE0FFF7CCFDA0EB0900404502D801
:1022E000B8F1000F33D1012F17D02B689B6926EA74
:1022F00003039BB2003B18BF012343B300232B63AE
:10230000202285F83D2085F83E302A6C42F02002DC
:102310002A6485F83C30012027E02B685B6926EAB7
:1023200003039BB2003B18BF0123E6E72B689C69BF
:1023300026EA0404A4B2003C18BF0124A4B12B680F
:102340005A6912F4806FAED1B8F1FF3FC2D1C6F323
:102350000747012FEAD12B685C6926EA0404A4B27E
:10236000003C18BF0124E9E70020BDE8F88370B500
:1023700004460D46164623685B6913F0800F21D191
:102380002046FFF71BFFF8B9B5F1FF3FF3D0FFF789
:102390006FFD801BA84201D8002DECD123685B693A
:1023A00013F0800FE7D100232363202284F83D201F
:1023B00084F83E30226C42F02002226484F83C30E3
:1023C000012000E0002070BD0120FCE72DE9F04372
:1023D00085B004460D4691461F46DDF830800D9EBF
:1023E0000368196841F48071196000964346002221
:1023F0004FF00111FFF7FBFE60B9236805F0FE0501
:102400001D613346424626492046FFF745FF68B125
:10241000012008E023681B6813F4807F02D04FF48A
:1024200000732364032005B0BDE8F0830023039309
:1024300023685A6903929B690393039B3246414682
:102440002046FFF794FF30B9012F0FD123685FFAC0
:1024500089F61E61E7E7236C042B01D00120E2E737
:102460002268136843F400731360F7E723684FEAA8
:1024700019221A61324641462046FFF778FF20B9FB
:1024800023685FFA89F61E61CDE7236C042B01D027
:102490000120C8E72268136843F400731360F7E76C
:1024A000020001002DE9F04784B004460D461646AF
:1024B00099460C9FDDF834800268136843F480630A
:1024C00013600368196841F480711960CDF80080C9
:1024D0003B4600224FF00111FFF789FE70B95FFA09
:1024E00085FA236805F0FE051D6143463A464149D9
:1024F0002046FFF7D1FE68B1012008E023681B6881
:1025000013F4807F02D04FF400732364032004B0DF
:10251000BDE8F0870023039323685A6903929B69FF
:102520000393039B424639462046FFF720FF80B9BC
:10253000B9F1010F18D12368F6B21E61424639463F
:102540002046FFF714FF68B3236C042B24D001202E
:10255000DDE7236C042B01D00120D8E72268136843
:1025600043F400731360F7E72368320A1A614246A6
:1025700039462046FFF7FBFE18B92368F6B21E6104
:10258000DCE7236C042B01D00120C0E7226813682C
:1025900043F400731360F7E72268136843F4007391
:1025A0001360D4E72268136843F480731360CDF896
:1025B00000803B4600224FF001112046FFF717FE36
:1025C00068B922684AF00103136143463A46094953
:1025D0002046FFF761FE002899D0012097E7236885
:1025E0001B6813F4807F02D04FF400732364032030
:1025F0008DE700BF0200010070B504460D46164687
:1026000023685B6913F0040F21D12046FFF7D6FD44
:10261000F8B9B5F1FF3FF3D0FFF72AFC801BA842C1
:1026200001D8002DECD123685B6913F0040FE7D1CA
:1026300000232363202284F83D2084F83E30226C5E
:1026400042F02002226484F83C30012000E00020A7
:1026500070BD0120FCE770B504460D46164614E037
:102660006FF010025A6100232363202284F83D207A
:1026700084F83E30226C226484F83C30012025E04E
:1026800023685B6913F0400F10D02368586910F07D
:10269000400F1AD1586910F0100FE1D1FFF7E8FB95
:1026A000801BA842ECD8002DEFD1E9E7002323637B
:1026B000202284F83D2084F83E30226C42F0200233
:1026C000226484F83C30012000E0002070BD00004E
:1026D000002800F0CC8070B5044690F83D30002B07
:1026E00077D0242384F83D302268136823F0010357
:1026F00013602268136843F4004313602268136870
:1027000023F40043136000F01BFE62685A4B9A42A8
:1027100064D85A4B98428CBF00230123002B40F011
:10272000A8805749A1FB00318B0C25686A6822F00C
:102730003F0242EA91426A6021680A6A22F03F023F
:1027400066684D4DAE424FD8013313430B6221688A
:10275000CA6922F44F4222F0FF026568464B9D424F
:102760004CD8431E6D00B3FBF5F3013340F6FC700B
:10277000034278D0C3F30B031A43CA6121680B6884
:1027800023F0C003E269206A024313430B6021680F
:102790008B6823F4034323F0FF032269E0680243BC
:1027A00013438B602168CB6823F0FF036269A06943
:1027B00002431343CB602268136843F001031360A4
:1027C00000202064202384F83D30206384F83E00FC
:1027D00070BD80F83C30FEF773FC82E7294B9842CD
:1027E0008CBF0023012399E74FF4967505FB03F393
:1027F000254DA5FB03539B090133A6E7A668BEB987
:10280000431E05EB450CB3FBFCF30133C3F30B0391
:10281000B3FA83F35B0943BBC6B9431E05EB450519
:10282000B3FBF5F30133C3F30B0343F40043A3E716
:10283000431E05EB850C0CEB8C0CB3FBFCF3013356
:10284000C3F30B03B3FA83F35B09E4E7431E05EB21
:10285000850505EB8505B3FBF5F30133C3F30B03E6
:1028600043F4404388E7042386E7012384E70120FB
:1028700070470120ACE700BFA08601007F841E00E6
:1028800083DE1B43FF083D00D34D62102DE9F0436A
:1028900083B004460F46904699460C9EFFF7E8FA2F
:1028A000054694F83D00C0B2202803D0022003B0B2
:1028B000BDE8F0830095192301224B492046FFF71C
:1028C00096FC002840F0898094F83C30012B00F001
:1028D0008680012384F83C3023681A6812F0010FC7
:1028E00003D11A6842F001021A602268136823F4C7
:1028F00000631360212384F83D30402384F83E3088
:10290000002323640A9B6362BDF82C306385638DCA
:102910002385364BE362019500964B464246394685
:102920002046FFF753FD00285BD1238D002B35D0C7
:102930002A4631462046FFF71AFD20BB626A23680B
:1029400012781A61626A531C6362218D013989B25F
:102950002185638D9BB2013B9BB2638523685869D7
:1029600010F0040FE1D00029DFD052781A61636AB9
:1029700001336362238D013B2385638D9BB2013B51
:102980009BB26385D1E7236C042B01D001208EE735
:102990002268136843F400731360F7E72A46314650
:1029A0002046FFF729FE50B1236C042B01D00120F3
:1029B0007DE72268136843F400731360F7E7226829
:1029C000136843F400731360202384F83D30002320
:1029D00084F83E3084F83C3069E7022067E7022043
:1029E00065E7012063E700BF020010000000FFFF61
:1029F0002DE9F04389B004460F4690469946129E51
:102A000000230793FFF734FA054694F83D00C0B25F
:102A1000202804D00227384609B0BDE8F08300958D
:102A20001923012281492046FFF7E1FB002840F0ED
:102A3000728194F83C30012B00F06F81012384F8FF
:102A40003C3023681A6812F0010F03D11A6842F073
:102A500001021A602268136823F4006313602223C2
:102A600084F83D30402384F83E3000232364109BDB
:102A70006362BDF844306385638D23856C4BE362EC
:102A8000019500964B46424639462046FFF70AFD1F
:102A90000746002840F04381238D5BB903932368E8
:102AA0005A6903929A690392039A1A6842F400726F
:102AB0001A60EDE0012B0FD0022B21D022681368A1
:102AC00043F4806313600023069323685A690692D7
:102AD0009B690693069BDBE02268136823F48063FE
:102AE000136072B60023049323685A6904929A69AA
:102AF0000492049A1A6842F400721A6062B6C7E03F
:102B00002268136843F40063136072B600230593D0
:102B100023685A6905929A690592059A1A6822F4FF
:102B200080621A6062B6B3E02A4631462046FFF75B
:102B300092FD002840F0F58023681A69636A1A70D4
:102B4000636A01336362238D013B2385638D9BB2EE
:102B5000013B9BB263859BE00095334600223549DB
:102B60002046FFF744FB002840F0DF80226813680E
:102B700023F48063136072B623681A69636A1A705B
:102B8000636A01336362238D013B2385638D9BB2AE
:102B9000013B9BB26385284B1B68DB08274AA2FBDD
:102BA00003231B0A03EB8303C3EBC3030793079BB6
:102BB000013B0793079B002B28D023685A6912F02A
:102BC000040FF4D01A6842F400721A6023681A697C
:102BD000636A1A70636A01336362238D013B238544
:102BE000638D9BB2013B9BB2638562B623681A6911
:102BF000636A1A70636A01336362238D013B238524
:102C0000638D9BB2013B9BB2638541E0236320222D
:102C100084F83D2084F83E30226C42F02002226489
:102C200062B684F83C300127F5E600BF02001000D0
:102C30000000FFFF040001009000002089B5F81497
:102C40002A4631462046FFF706FD00286FD123684B
:102C50001A69636A1A70626A531C6362238D013BAE
:102C60002385638D9BB2013B9BB2638523685969C1
:102C700011F0040F0CD01B695370636A0133636257
:102C8000238D013B2385638D9BB2013B9BB2638502
:102C9000238D002B36D0032BD2D8012B3FF444AF29
:102CA000022B7FF459AF009533460022214920467C
:102CB000FFF79DFA002836D172B62268136843F4F4
:102CC0000073136023681A69636A1A70636A0133B8
:102CD0006362238D013B2385638D9BB2013B9BB2D5
:102CE000638562B623681A69636A1A70636A01337E
:102CF0006362238D013B2385638D9BB2013B9BB2B5
:102D00006385C5E7202384F83D30002384F83E30F6
:102D100084F83C307FE602277DE602277BE6012728
:102D200079E6012777E6012775E6012773E6012793
:102D300071E600BF0400010082B0084B1B68084A1E
:102D4000A2FB03235B0A00FB03F3019300BF019B7B
:102D50005A1E0192002BF9D102B07047900000205A
:102D6000D34D6210002800F0F18170B582B00446A6
:102D7000036813F0010F2CD0994B5B6803F00C0330
:102D8000042B1DD0964B5B6803F00C03082B12D06C
:102D90006368B3F5803F41D0002B55D103F18043E8
:102DA00003F504331A6822F480321A601A6822F498
:102DB00080221A6037E08A4B5B6813F4803FE7D0CB
:102DC000874B1B6813F4003F03D06368002B00F0AF
:102DD000BF81236813F0020F75D0814B5B6813F03D
:102DE0000C0F5FD07E4B5B6803F00C03082B54D0B4
:102DF0002369002B00F08A807A4B01221A60FFF7CA
:102E000037F80546764B1B6813F0020F75D1FFF7B4
:102E10002FF8401B0228F5D903209EE1704A136861
:102E200043F480331360636843B3FFF721F805462A
:102E30006B4B1B6813F4003FCBD1FFF719F8401B15
:102E40006428F5D9032088E1B3F5A02F09D0644B9D
:102E50001A6822F480321A601A6822F480221A60FA
:102E6000E1E703F18043A3F53C331A6842F4802282
:102E70001A601A6842F480321A60D4E7FEF7F8FF4D
:102E80000546574B1B6813F4003FA2D0FEF7F0FF36
:102E9000401B6428F5D903205FE1514B5B6813F4B4
:102EA000803FA5D14E4B1B6813F0020F03D023695E
:102EB000012B40F04F814A4A136823F0F8036169FF
:102EC00043EAC1031360236813F0080F33D0A369EA
:102ED000002B5CD0434B0122C3F88024FEF7C8FFCF
:102EE00005463F4B5B6A13F0020F21D1FEF7C0FF8E
:102EF000401B0228F5D903202FE1394A136823F03B
:102F0000F803616943EAC1031360DCE7354B002233
:102F10001A60FEF7ADFF0546314B1B6813F0020F38
:102F2000D1D0FEF7A5FF401B0228F5D9032014E1FC
:102F30000120FFF701FF236813F0040F00F09680D3
:102F4000274BDB6913F0805F34D1254BDA6942F0FF
:102F50008052DA61DB6903F080530193019B012504
:102F6000214B1B6813F4807F26D0E368012B3DD0F2
:102F7000002B53D103F1804303F504331A6A22F086
:102F800001021A621A6A22F004021A6233E0154B37
:102F90000022C3F88024FEF76BFF0546104B5B6AE6
:102FA00013F0020FC7D0FEF763FF401B0228F5D9CC
:102FB0000320D2E00025D3E70B4A136843F4807363
:102FC0001360FEF755FF0646074B1B6813F4807F1E
:102FD000CBD1FEF74DFF801B6428F5D90320BCE060
:102FE0000010024000004242007000405F4A136A35
:102FF00043F001031362E36833B3FEF739FF06467B
:103000005A4B1B6A13F0020F2FD1FEF731FF801BC2
:1030100041F288339842F3D903209EE0052B09D072
:10302000524B1A6A22F001021A621A6A22F0040252
:103030001A62E0E74D4B1A6A42F004021A621A6AF9
:1030400042F001021A62D6E7FEF712FF0646474B2E
:103050001B6A13F0020F08D0FEF70AFF801B41F233
:1030600088339842F3D9032077E0E5B9E369002B70
:1030700072D03E4A526802F00C02082A56D0022B47
:1030800017D03B4B00221A66FEF7F2FE0446374B80
:103090001B6813F0007F47D0FEF7EAFE001B0228F2
:1030A000F5D9032059E0314AD36923F08053D36125
:1030B000DCE72F4B00221A66FEF7DAFE05462B4BA3
:1030C0001B6813F0007F06D0FEF7D2FE401B0228DB
:1030D000F5D9032041E0236AB3F5803F1AD0234994
:1030E0004B6823F47413226A606A024313434B60F3
:1030F0001F4B01221A66FEF7BBFE04461B4B1B68E2
:1031000013F0007F0ED1FEF7B3FE001B0228F5D9A5
:10311000032022E0154A536823F40033A1680B43CF
:103120005360DCE7002018E0002016E0012B16D0E9
:103130000E4B5B6803F48031226A914211D103F493
:103140007013626A93420ED1002006E0012070479E
:10315000012002E0012000E0002002B070BD01204B
:10316000FBE70120F9E70120F7E700BF001002406C
:10317000000042420F4B5B6803F00C02082A01D0AA
:103180000D487047C3F383420C49885C13F4803FB9
:103190000BD0084B5B68C3F34043094AD35C064A33
:1031A00002FB00F0B0FBF3F07047064B03FB00F0AE
:1031B000704700BF0010024000127A005448000817
:1031C0005048000800093D00002800F0A08070B5BC
:1031D0000D460446524B1B6803F007038B420BD28B
:1031E0004F4A136823F007030B431360136803F07F
:1031F00007038B4240F08D80236813F0020F17D035
:1032000013F0040F04D0474A536843F4E06353605B
:10321000236813F0080F04D0424A536843F4605304
:103220005360404A536823F0F003A1680B43536096
:10323000236813F0010F31D06368012B20D0022BDB
:1032400025D0384A126812F0020F64D035494A6816
:1032500022F0030213434B60FEF70AFE0646314B91
:103260005B6803F00C036268B3EB820F16D0FEF7C5
:10327000FFFD801B41F288339842F0D9032045E0DE
:10328000284A126812F4003FE0D101203EE0254AAE
:10329000126812F0007FD9D1012037E0204B1B6863
:1032A00003F00703AB420AD91D4A136823F0070352
:1032B0002B431360136803F00703AB422DD123683F
:1032C00013F0040F06D0174A536823F4E063E16853
:1032D0000B435360236813F0080F07D0114A53685B
:1032E00023F46053216943EAC1035360FFF742FFAF
:1032F0000C4B5B68C3F303130B4AD35CD8400B4BF6
:1033000018600B4B1868FEF76FFD002070BD0120A0
:1033100070470120FAE70120F8E70120F6E700BF37
:1033200000200240001002404048000890000020A9
:1033300098000020014B1868704700BF90000020E3
:1033400008B5FFF7F7FF044B5B68C3F30223034A9A
:10335000D35CD84008BD00BF0010024038480008C8
:1033600008B5FFF7E7FF044B5B68C3F3C223034ACA
:10337000D35CD84008BD00BF0010024038480008A8
:1033800030B4026A036A23F001030362456883696B
:1033900023F073030C681C4322F002028B68134372
:1033A0000B4A904206D0456084614A6842630362DA
:1033B00030BC704723F00803CA681A4322F00403A4
:1033C00025F440754A692A438D691543EBE700BF30
:1033D000002C014030B4036A026A22F48072026257
:1033E0004468C26922F073020D68154323F4007328
:1033F0008A6843EA02230D4A904206D04460C561C0
:103400004A68C263036230BC704723F40063CA6831
:1034100043EA022323F4806324F440544A6944EAD3
:1034200002148A6944EA0214E8E700BF002C014054
:1034300030B4036A026A22F4805202624468C269AC
:1034400022F4E6420D6842EA052223F400538D6817
:1034500043EA0533074DA84206D04460C2614A687A
:103460000264036230BC704724F480444D6944EA2E
:103470008514F2E7002C014010B4036A046A24F0BA
:1034800001040462846924F0F00C4CEA021223F077
:103490000A030B438261036210BC704710B4036AD5
:1034A000046A24F010040462846924F4704C4CEA29
:1034B000023223F0A00343EA01138261036210BCCD
:1034C0007047836823F070030B4343F00703836066
:1034D0007047000090F83D30DBB2012B27D102236A
:1034E00080F83D300268D36843F00103D36003687D
:1034F000114A934210D0B3F1804F0DD0A2F594320F
:10350000934209D002F58062934205D01A6842F0D6
:1035100001021A60002070479A6802F00702062A2A
:1035200007D01A6842F001021A600020704701209B
:1035300070470020704700BF002C01407047704763
:1035400070477047704710B5044603681A6912F057
:10355000020F11D0DA6812F0020F0DD06FF00202E4
:103560001A610123037703689B6913F0030F70D07E
:10357000FFF7E6FF0023237723681A6912F0040F90
:1035800012D0DA6812F0040F0ED06FF004021A6144
:103590000223237723689B6913F4407F5FD0204682
:1035A000FFF7CEFF0023237723681A6912F0080F74
:1035B00012D0DA6812F0080F0ED06FF008021A610C
:1035C000042323772368DB6913F0030F4ED02046D2
:1035D000FFF7B6FF0023237723681A6912F0100F54
:1035E00012D0DA6812F0100F0ED06FF010021A61CC
:1035F000082323772368DB6913F4407F3DD02046FE
:10360000FFF79EFF0023237723681A6912F0010F4A
:1036100003D0DA6812F0010F36D123681A6912F06C
:10362000800F03D0DA6812F0800F34D123681A6952
:1036300012F0400F03D0DA6812F0400F32D1236845
:103640001A6912F0200F03D0DA6812F0200F30D17F
:1036500010BDFFF774FF2046FFF773FF8AE720468F
:10366000FFF76DFF2046FFF76CFF9BE72046FFF753
:1036700066FF2046FFF765FFACE72046FFF75FFFD8
:103680002046FFF75EFFBDE76FF001021A6120469A
:10369000FDF776FDC1E76FF080021A61204600F069
:1036A000EDFBC3E76FF040021A612046FFF74AFFC7
:1036B000C5E76FF020021A61204600F0DEFBC7E785
:1036C00003681B4A90420AD0B0F1804F07D0A2F5A0
:1036D0009432904203D002F58062904203D123F0ED
:1036E00070034A681343124A90420AD0B0F1804FE7
:1036F00007D0A2F59432904203D002F58062904246
:1037000003D123F44073CA68134323F080034A694A
:10371000134303608B68C3620B688362044B984257
:1037200002D00123436170470B690363F9E700BFCF
:10373000002C014040B310B5044690F83D30F3B181
:10374000022384F83D30214651F8040BFFF7B8FFFF
:10375000012384F8463084F83E3084F83F3084F802
:10376000403084F8413084F8423084F8433084F8A3
:10377000443084F8453084F83D30002010BD80F896
:103780003C30FEF763F9DBE70120704740B310B52A
:10379000044690F83D30F3B1022384F83D302146D1
:1037A00051F8040BFFF78CFF012384F8463084F8AE
:1037B0003E3084F83F3084F8403084F8413084F85B
:1037C000423084F8433084F8443084F8453084F83B
:1037D0003D30002010BD80F83C30FFF7AFFEDBE746
:1037E00001207047002856D070B50D46044690F869
:1037F0003D30002B4AD0022384F83D302268936884
:1038000023F4804323F007039360214651F8040B0F
:10381000FFF756FF21688B688A690E6A286818438B
:1038200022F4407222F00302AB68D5F818C043EAD4
:103830000C23134323F47C4323F0FC03EA68D5F8FC
:103840001CC042EA0C221A432B6A1B03D5F810C095
:1038500043EA0C13134326F022066A686D6942EAB4
:1038600005123243886021688B6123681A62012344
:1038700084F8463084F83E3084F83F3084F8423093
:1038800084F8433084F83D30002070BD80F83C302F
:10389000FEF70CF9AFE701207047000030B4036A6F
:1038A000026A22F0100202624468826922F4E6424F
:1038B0000D6842EA052223F020038D6843EA0513D0
:1038C0000C4DA84206D0446082614A68826303625C
:1038D00030BC704723F08003CD6843EA051323F022
:1038E000400324F440644D6944EA85048D6944EA48
:1038F0008504E8E7002C014038B590F83C30012BF6
:1039000066D004460D46012380F83C300C2A5AD874
:10391000DFE802F0075959591B595959305959597B
:1039200044000068FFF72CFD2268936943F0080308
:1039300093612268936923F0040393612268936979
:1039400029690B43936100203EE00068FFF7A6FF62
:103950002268936943F4006393612268936923F4B6
:103960008063936122689369296943EA0123936123
:10397000002029E00068FFF72DFD2268D36943F09D
:103980000803D3612268D36923F00403D36122685A
:10399000D36929690B43D361002015E00068FFF764
:1039A00047FD2268D36943F40063D3612268D36979
:1039B00023F48063D3612268D369296943EA012330
:1039C000D361002000E00120002384F83C3038BDA2
:1039D0000220FCE710B4846824F47F4C42EA0322FE
:1039E0000A4342EA0C02826010BC704790F83C30F7
:1039F000012B78D010B50446012380F83C30022317
:103A000080F83D300268936823F47F4323F0770306
:103A100093600B68602B4CD029D8402B54D00CD924
:103A2000502B22D1CA6849680068FFF725FD502154
:103A30002068FFF746FD002005E0202B0DD009D9B6
:103A4000302B0AD00120012384F83D30002384F874
:103A50003C3010BD0BB1102B05D119462068FFF783
:103A600030FD0020EFE70120EDE70120EBE7B3F5A3
:103A7000805F34D0B3F5005F0CD1CB684A688968A9
:103A80000068FFF7A7FF2268936843F480439360C0
:103A90000020D8E7702B24D1CB684A688968006879
:103AA000FFF798FF2268936843F077039360002044
:103AB000C9E7CA6849680068FFF7F0FC6021206820
:103AC000FFF7FFFC0020BEE7CA6849680068FFF7FF
:103AD000D3FC40212068FFF7F4FC0020B3E700206E
:103AE000B1E70120AFE70220704710B50468A26873
:103AF00022F070024B68134323F007030A681A434D
:103B0000A2604B68502B32D00BD9602B36D0702B73
:103B100043D10B698A68C9680068FFF75BFF002022
:103B20000FE0402B0ED001D901200AE0202B2CD031
:103B300003D9302B2FD1002003E043B3102B28D121
:103B4000002010BD0B68052B29D003681C6A1A6A77
:103B500022F001021A620268936923F0F0030969F6
:103B600043EA0113936103681C620020E9E70A69D4
:103B700089680068FFF780FC0020E2E70A6989682D
:103B80000068FFF78BFC0020DBE70020D9E700206E
:103B9000D7E70120D5E70120D3E70120D1E70120B5
:103BA000CFE790F83C30012B22D010B5044601231A
:103BB00080F83C30022380F83D30FFF796FF80B953
:103BC0002268D36823F04003D3602268D36823F4CB
:103BD0008043D360012384F83D30002384F83C30D7
:103BE00010BD012084F83D00002384F83C30F7E745
:103BF0000220704701F01F014FF0010C0CFA01FC8C
:103C0000036A23EA0C030362036A8A4013430362D4
:103C10007047000010B50446084651BB94F83E308A
:103C2000DBB2013B18BF0123002B5BD1002839D147
:103C3000022384F83E30012201462068FFF7DAFFB4
:103C400023682A4A93423DD02368284A93423ED0B3
:103C5000B3F1804F3BD0A2F59432934237D002F5B6
:103C60008062934233D01A6842F001021A60002049
:103C700039E0042908D008290DD094F84130DBB28E
:103C8000013B18BF0123CFE794F83F30DBB2013B83
:103C900018BF0123C8E794F84030DBB2013B18BFDE
:103CA0000123C1E7042805D0082807D0022384F89F
:103CB0004130C0E7022384F83F30BCE7022384F898
:103CC0004030B8E75A6C42F400425A64BCE79A6844
:103CD00002F00702062A07D01A6842F001021A60B1
:103CE000002000E0012010BD0020FCE7002C014076
:103CF00038B5044690F83E00C0B294F83F3094F8CE
:103D00004220D2B294F843C00D46B1B9012849D13E
:103D1000012A48D1022384F83E3084F842307DB332
:103D2000042D39D0012200212068FFF763FF012212
:103D300004212068FFF75EFF27E0DBB25FFA8CFC0E
:103D4000042912D0012833D1012B2CD1012A31D1E1
:103D5000BCF1010F30D1022384F83E3084F83F30AB
:103D600084F8423084F84330D9E7012B1CD1BCF1F0
:103D7000010F1BD1022384F83F3084F84330CEE793
:103D8000012200212068FFF735FF2268136843F005
:103D900001031360002006E0012204212068FFF7E0
:103DA00029FFF2E7012038BD0120FCE71846FAE7B9
:103DB0000120F8E71846F6E71046F4E790F83C20B3
:103DC000012A2CD010B40346012280F83C200222A4
:103DD00080F83D2002685068946820F0700C0868F4
:103DE00040EA0C0050601A680E4882420AD0B2F1D4
:103DF000804F07D0A0F59430824203D000F5806058
:103E0000824204D124F08004496821439160012258
:103E100083F83D20002083F83C0010BC704702204E
:103E2000704700BF002C0140024690F83C30012B47
:103E300021D0012380F83C30CB6823F4407388689C
:103E4000034323F480634868034323F40063086852
:103E5000034323F480530869034323F40053486960
:103E6000034323F48043C9690B4311684B6400206A
:103E700082F83C007047022070477047704700008E
:103E800010B504460268136923F44053C1680B431C
:103E9000136183680269134342691A430168CB685E
:103EA00023F4B05323F00C031343CB60026853692F
:103EB00023F4407381690B4353610268134B9A42A8
:103EC00020D0FFF73DFA024602EB820202EB8202AB
:103ED00063689B00B2FBF3F20D48A0FB0231490975
:103EE000642303FB11231B013233A0FB03035B0993
:103EF00003F0F00202EB011203F00F0321681344F8
:103F00008B6010BDFFF72CFA0246DDE70038014058
:103F10001F85EB5160B310B5044690F8413013B3E0
:103F2000242384F841302268D36823F40053D360FB
:103F30002046FFF7A5FF2268136923F4904313611D
:103F40002268536923F02A0353612268D36843F43B
:103F50000053D36000206064202384F8413084F84B
:103F60004230606310BD80F84030FDF7D3FED7E7E4
:103F70000120704770B5860747D0541E002A3ED0F6
:103F80000346CAB201E0013C39D303F8012B9D0777
:103F9000F9D1032C2CD9CDB205EB05250F2C1A46EF
:103FA00005EB054534D9A4F1100C2CF00F0603F1F4
:103FB000100EB6444FEA1C1C156055609560D56024
:103FC00010327245F8D10CF1010214F00C0F03EB22
:103FD000021204F00F0C13D0ACF1040323F003031E
:103FE0000433134442F8045B9A42FBD10CF00304FF
:103FF0002CB1C9B21C4403F8011B9C42FBD170BD1B
:1040000064461346002CF4D1F9E703461446C0E792
:10401000A446E1E7014B1868704700BF9C000020F0
:1040200070B50F4B0F4DAB42A3EB050607D0002434
:10403000B61055F8043B01349847A642F9D800F071
:10404000EDFB094D094B5E1BAB424FEAA60606D0BD
:10405000002455F8043B01349847A642F9D870BDB6
:10406000D8480008D8480008D8480008E0480008A8
:10407000704700BF704700BF024B13B1024800F009
:1040800005B8704700000000994000080023014671
:104090001A46184600F014B838B5074D074C2C1BCB
:1040A000A41005D0013C55F8043D9847002CF9D1E7
:1040B000BDE8384000F0B8BBE4480008E04800081C
:1040C0002DE9F8431B4D0646286898460F46914651
:1040D000FFF7CEFF184B1C681CB3286865681F2DBE
:1040E00022DC4EB96B1C0235636044F82570FFF783
:1040F000C1FF0020BDE8F883012304EB8501C1F86E
:104100008890D4F88821AB401A43022EC4F8882145
:10411000C1F80881E6D1D4F88C211A43C4F88C2167
:10412000E0E7064C1C60D8E7FFF7A4FF4FF0FF3034
:10413000E0E700BFC0010020AC050020B005002072
:1041400000F0A2BAF8B504460D4600F0ADF92246DB
:1041500006460F462B4620462946FCF7B5FE30B9E9
:104160002046294600220023FCF700FC10B9304607
:104170003946F8BDFFF74EFF0022002321210160E0
:1041800010461946FCF7AAFA06460F46304639464D
:10419000F8BD00BF000000002DE9F84FB64B21F03C
:1041A00000469E4204460D468A4616D9B34B9E42AF
:1041B0000BD808D0BAF1000F40F3C28092A1D1E928
:1041C0000001BDE8F88F0028F4D022462B46204697
:1041D0002946FBF7A3FFBDE8F88FA94B9E4200F2EA
:1041E000B480A3F1DE739E4240F29B804FF0FF3B10
:1041F00022462B4620462946FCF746F902460B4646
:1042000080468946FCF740F981A3D3E9002306469E
:104210000F46FCF739F980A3D3E90023FBF77EFFB3
:1042200032463B46FCF730F97DA3D3E90023FBF788
:1042300075FF32463B46FCF727F97BA3D3E9002301
:10424000FBF76CFF32463B46FCF71EF978A3D3E937
:104250000023FBF763FF32463B46FCF715F976A3D4
:10426000D3E90023FBF75AFF42464B46FCF70CF913
:1042700073A3D3E900238046894630463946FCF7CC
:1042800003F971A3D3E90023FBF746FF32463B460F
:10429000FCF7FAF86EA3D3E90023FBF73DFF3246A3
:1042A0003B46FCF7F1F86CA3D3E90023FBF734FF9E
:1042B00032463B46FCF7E8F869A3D3E90023FBF755
:1042C0002BFF32463B46FCF7DFF802460B464046E2
:1042D0004946FBF723FF22462B46FCF7D5F8BBF1F6
:1042E000FF3F02460B464FD0664B674E03EBCB03B6
:1042F000D3E90023FBF710FF22462B46FBF70CFF08
:1043000006EBCB0602460B46D6E90001FBF704FF9D
:10431000BAF1000FBFF65FAF01F100431946BDE8E7
:10432000F88F51A3D3E90023FBF7F8FE0022574B87
:10433000FCF73AFB00283FF459AF204629464AE7EC
:104340004BA1D1E90001BDE8F88F00F0A9F8504B6E
:1043500004469E420D461DD8A3F550239E4244D8E4
:1043600002460B46FBF7DAFE0022484BFBF7D4FE71
:1043700002460B462046294614461D464FF0000BC8
:1043800000224FF080431AE020462946FBF7C4FE86
:10439000BDE8F88F3F4B9E421CD200223E4BFBF7FC
:1043A000BBFE02460B462046294614461D46002207
:1043B000394B4FF0020BFCF767F80022334BFBF749
:1043C000ADFE02460B4620462946FCF787F9044617
:1043D0000D460DE702460B4600203049FCF77EF9FA
:1043E0004FF0030B04460D4602E70022274BFBF774
:1043F00093FE02460B46204629464FF0010B144619
:104400001D46DAE7AFF30080182D4454FB21F93F35
:1044100011DA22E33AAD903FEB0D76244B7BA93FB6
:10442000513DD0A0660DB13F6E204CC5CD45B73F84
:10443000FF8300922449C23F0D5555555555D53F30
:104440002F6C6A2C44B4A2BF9AFDDE522DDEAD3F24
:104450006D9A74AFF2B0B33F711623FEC671BC3FC4
:10446000C4EB98999999C93F9C7500883CE4377EC4
:10447000182D4454FB21F9BFFFFF0F440000F07FCB
:10448000FFFFDB3F68480008884800080000F03F55
:10449000FFFFF23F008003400000F83F0000F0BF44
:1044A00021F00043194670472DE9F84F724F04463A
:1044B0008F430D4600F0B28000290B4606460246A7
:1044C00055DD081500F09B80C3F31303C107A0F26C
:1044D000FF3743F4801303D4D10F01EB43035200A1
:1044E000002616244FF40011B4465B0003EBD27390
:1044F0007F1052000CEB0100984203DC1B1A01EB09
:10450000000C0E445B00013C03EBD2734FEA5101F7
:104510004FEA4202EED120254FF00040A0460AE0CB
:1045200039D0590001EBD271013D0B464FEA4202EE
:104530004FEA50003BD09C4508EB000EF0DABEF18C
:10454000000F0EEB00080CDBE146A3EB0C01CC46A0
:10455000964588BF01F1FF314900A2EB0E020444E9
:10456000E0E7B8F1000FEFDB0CF10109EDE721F016
:10457000004707433DD0002973D1D10A153B5205AE
:104580000029FAD0CD02184616460B4637D520240E
:104590004FF0FF313EE0964502D94FEA4C01C1E7AA
:1045A000BEF1000F0EEB000825DB0021D5E711431B
:1045B00012D0DFF8C8A0DFF8C8B0DAE90001DBE903
:1045C0000023FBF7A9FDDAE9008902460B464046C5
:1045D0004946FCF7D5F958BB6508F20748BF45F0D6
:1045E00000452846731003F17F5303F5001303EBD6
:1045F0000751BDE8F88FB8F1000FB5DAD5E7002212
:104600005B00DC02114602F10102F9D5C2F120047F
:1046100006FA02F2E640401A334355E702460B46DB
:10462000FBF732FF22462B46FBF778FDBDE8F88FFB
:10463000B4F1FF3FDAE90001DBE9002318D0DAE941
:104640000089FBF76BFD02460B4640464946FCF7E6
:104650008DF978B1A11C04F1020508BF01366D087F
:10466000BBE7FBF759FD02460B46FCF737F8C0E7FE
:104670000136B2E70134AFE70000F07FD00100203F
:10468000C8010020000000002DE9F84F9946534270
:104690005F4F134329F0004E4EEAD373BB420446EA
:1046A0000D4690463DD84642064321F0004A4AEA6C
:1046B000D676BE4203468B4633D809F1404606F50E
:1046C000801616433DD04FEAA97606F002065AEA54
:1046D000030346EAD1762CD05EEA020235D0BE450D
:1046E00046D0BA4531D0AAEB0E0ABAF1747F4FEA30
:1046F0002A5339DAB9F1000F46DA3C3344DA0020A4
:104700000021012E58D0022E49D086B134A3D3E91E
:104710000023FBF701FD34A3D3E90023FBF7FCFCE6
:1047200005E022462B4640464946FBF7F7FCBDE82C
:10473000F88F022E10D0032EF9D12DA1D1E900015E
:10474000F5E7BDE8F84FFFF727BDBBF1000F07DB2A
:1047500029A1D1E90001EAE723A1D1E90001E6E7B7
:1047600027A1D1E90001E2E723A1D1E90001C8E7CF
:10477000F24506F1FF3623D0022E29D8254B03EB54
:10478000C603D3E90001D2E742464B4620462946FC
:10479000FBF7A4FFFFF784FEFFF7FEFCB1E710A3D1
:1047A000D3E90023FBF7B8FC02460B460EA1D1E982
:1047B0000001FBF7B1FCBAE701F100431946B6E787
:1047C000022E08D8144B03EBC603D3E90001AEE771
:1047D00000200021ABE70CA1D1E90001A7E700BF51
:1047E000075C143326A6A13C182D4454FB21094034
:1047F000182D4454FB2109C0182D4454FB21F93FC6
:10480000182D4454FB21F9BF182D4454FB21E93FD6
:104810000000F07FA8480008C0480008F8B500BFB5
:10482000F8BC08BC9E467047F8B500BFF8BC08BC91
:044830009E467047E9
:104838000000000001020304000000000000000066
:104848000102030406070809010200000203040527
:10485800060708090A0B0C0D0E0F101000000000C7
:10486800E2652F227F2B7A3C075C143326A6813C15
:10487800BDCBF07A8807703C075C143326A6913CC0
:104888004FBB610567ACDD3F182D4454FB21E93F60
:104898009BF681D20B73EF3F182D4454FB21F93F4F
:1048A8000000000000000080182D4454FB2109403E
:1048B800182D4454FB2109C0182D4454FB21E9BF8D
:1048C800D221337F7CD90240D221337F7CD902C0E8
:0848D800794000085D0F0008A3
:0448E000350F000888
:1048E400000000E04D62503F000000C07493683F38
:1048F400000000E051B89E3F0000000000000000EE
:1049040000000000000000000000000000000000A3
:104914000000000000000000000000000000000093
:104924000000000000000000000000E04D62503F65
:10493400000000C07493683F000000E051B89E3F3F
:104944000000000000000000000000000000000063
:104954000000000000000000000000000000000053
:104964000000000000000000000000000000000043
:104974000024F4000100000010000000A00000204A
:104984000000000070040020D8040020400500202E
:104994000000000000000000000000000000000013
:1049A4000000000000000000000000000000000003
:1049B40000000000000000000000000000000000F3
:1049C40000000000000000000000000000000000E3
:1049D40000000000000000000000000000000000D3
:1049E40000000000000000000000000000000000C3
:1049F40000000000000000000000000000000000B3
:104A040000000000000000000000000000000000A2
:104A14000000000000000000010000000000000091
:104A24000E33CDAB34126DE6ECDE05000B00000056
:104A34000000000000000000000000000000000072
:104A44000000000000000000000000000000000062
:104A54000000000000000000000000000000000052
:104A64000000000000000000000000000000000042
:104A74000000000000000000000000000000000032
:104A84000000000000000000000000000000000022
:104A94000000000000000000000000000000000012
:104AA400A80500200000000059F3F8C21F6EA501FC
:084AB400000000000000F03FCB
:0400000508001D9D35
:00000001FF
