:0C0178001201842092051201A880F822D8
:0A01BF0020920302000312018422C3
:1000CA0012018420921B1201D312015D12015D12EA
:1000DA00015D12015D12015D1201A8120184120173
:0200EA005D2295
:0A01C9002092030201D312018422E8
:10013D0020920A800330B10512000380F802018479
:0300000002000EED
:0C000E00787FE4F6D8FD758120020055D3
:04012800020E0000C3
:0D015D007FA77EAB7D10DDFEDEFADFF60031
:01016A002272
:10014D00438901758CFC758A18D2A9D2AFD28C2245
:03000B0002009A56
:10009A00C0E0C0F0C083C082C0D075D010758CFC9F
:1000AA00758A18050FE50F7002050E0508050D1271
:1000BA0000EC12010AD0D0D082D083D0F0D0E03246
:0D016B0012014DE4F50AF50912013D80FB7B
:10012C00010800010C00010D00010B00C181C18010
:0501D900C2B0D2952226
:0601B400850A0C85090B11
:0501BA00D2B0C2952245
:0501DE00D2B0D2952211
:0501E300C293D2B3221B
:0501E800D293C2B32216
:0501ED00D293D2B32201
:1000EC00300118E508D3950C5004D2908002C290D0
:0E00FC00E508C3940A4006E4F50822C29022EB
:10010A00300018E50DD3950B5004D2918002C291AC
:0E011A00E50DC3940A4006E4F50D22C29122C1
:0C018400850A0C85090B1201D90201E369
:060003001201B40201E845
:0C019000850A0C85090B1201E30201DE58
:0C019C00850A0C85090B1201ED0201D947
:0C01A800850A0C85090B1201DE0201ED36
:0601D3001201B40201E379
:10001A0002016BE493A3F8E493A34003F68001F290
:10002A0008DFF48029E493A3F85407240CC8C333E7
:10003A00C4540F4420C8834004F456800146F6DFB6
:10004A00E4800B0102040810204080900128E47E1D
:10005A00019360BCA3FF543F30E509541FFEE493AB
:10006A00A360010ECF54C025E060A840B8E493A372
:10007A00FAE493A3F8E493A3C8C582C8CAC583CA9D
:10008A00F0A3C8C582C8CAC583CADFE9DEE780BE55
:01013C0000C2
:00000001FF
